:100000000C9445040C9462040C9462040C946204F5
:100010000C9462040C9462040C9462040C946204C8
:100020000C9462040C9462040C9440230C941424E9
:100030000C94241E0C9462040C9462040C946204CC
:100040000C9462040C9462040C9462040C94620498
:100050000C9462040C94AB1E0C9462040C94620425
:100060000C9462040C9462040C9462040C94620478
:100070000C9462040C9462040C9462040C94620468
:100080000C9462040C9462040C9462040C94620458
:100090000C9462040C9462040C9462040C94620448
:1000A0000C9462040C9462040C9462040102E076E5
:1000B0000103E0000102E0630103E000808182832C
:1000C0008485868788898A8B8C8D8E8F9091929378
:1000D00094A0A1A2A3A4A5A6A7A8A9AAABACADAEC3
:1000E000AFB0B1B2B3B4C0C1C2C3C4C5C6C7C8C93A
:1000F000CACBCCCDCECFD0D1D2D3D400B25DB45DFB
:10010000B35D07000800090000AE00AF00DA02810D
:10011000FFD9F1DB20A4A62EAF00A0C000A1C8002B
:10012000AED580A81FD300408D14200007087F089B
:1001300007003E5B4F5B3E003E6B4F6B3E001C3E3C
:100140007C3E1C00183C7E3C18001C577D571C0050
:100150001C5E7F5E1C0000183C180000FFE7C3E730
:10016000FF00001824180000FFE7DBE7FF0030481D
:100170003A060E00262979292600407F050507004A
:10018000407F05253F005A3CE73C5A007F3E1C1C3F
:100190000800081C1C3E7F0014227F2214005F5FB1
:1001A000005F5F0006097F017F00006689956A0095
:1001B00060606060600094A2FFA2940008047E0466
:1001C000080010207E20100008082A1C0800081CC7
:1001D0002A0808001E10101010000C1E0C1E0C0027
:1001E00030383E383000060E3E0E0600000000009B
:1001F000000000005F000000000700070000147FFF
:10020000147F1400242A7F2A12002313086462003A
:10021000364956205000000807030000001C224108
:1002200000000041221C00002A1C7F1C2A00080834
:100230003E08080000807030000008080808080028
:100240000000606000002010080402003E51494593
:100250003E0000427F40000072494949460021416A
:10026000494D33001814127F1000274545453900C9
:100270003C4A4949310041211109070036494949A1
:100280003600464949291E000000140000000040C5
:100290003400000000081422410014141414140047
:1002A0000041221408000201590906003E415D592F
:1002B0004E007C1211127C007F49494936003E41B4
:1002C000414122007F4141413E007F49494941006F
:1002D0007F09090901003E41415173007F08080868
:1002E0007F0000417F4100002040413F01007F0826
:1002F000142241007F40404040007F021C027F00EA
:100300007F0408107F003E4141413E007F090909FA
:1003100006003E4151215E007F0919294600264909
:100320004949320003017F0103003F4040403F0044
:100330001F2040201F003F4038403F006314081436
:1003400063000304780403006159494D4300007FB2
:1003500041414100020408102000004141417F005A
:10036000040201020400404040404000000307082E
:1003700000002054547840007F284444380038441A
:1003800044442800384444287F003854545418000A
:1003900000087E09020018A4A49C78007F080404C9
:1003A000780000447D4000002040403D00007F1068
:1003B0002844000000417F4000007C04780478005D
:1003C0007C0804047800384444443800FC18242491
:1003D000180018242418FC007C0804040800485461
:1003E0005454240004043F4424003C4040207C003A
:1003F0001C2040201C003C4030403C004428102879
:1004000044004C9090907C004464544C440000089C
:10041000364100000000770000000041360800006F
:100420000201020402003C2623263C0000000000DA
:100430000000404040F0F8F8FF38FFF8F83FF8F8C7
:10044000FF38FFF8F8F04040400000000000008056
:10045000C0C0C0800000C0C08000000080C0C000DC
:10046000C0C0000080C0C00000000000C0C0C0C00C
:10047000C000C0C00000000000000000000000003C
:10048000000000000000000000000000000000006C
:10049000000000000000000000000000000000005C
:1004A0000000000000000000000000C0F0F8FC3E6A
:1004B0001E06010000007F4141417F007F41414114
:1004C0007F000080C0E07E5B4F5BFEC00000C0008C
:1004D000DCD7DEDEDED7DC00C0000000000000005C
:1004E000000000000000000000000000000000000C
:1004F0000000494949FFFFFFFFE0DFBFBF00BFBF6A
:10050000DFE0FFFFFFFF49494900000000001F3FF7
:100510006060E0BF1F007F7F071E381E077F7F00DF
:100520007F7F0E1F3B716000000000007F7F0C0C7E
:100530000C007E7E007F7E0303007F7E03037E7EB1
:1005400003037F7E000F3E703C063C703E0F00327E
:100550007B49493F7E007F7E0303001E3F69696F30
:100560002600000000000000000000030F1F3F3CB9
:100570007870600000007F4141417F007F41414130
:100580007F00307B7F7830202030787F3B00030075
:100590000F7F0F0F0F7F0F0003000000000000000F
:1005A000000000000000000000000000000000004B
:1005B0000000010101070F0F7F0F7F0F0F7E0F0F4C
:1005C0007F0F7F0F0F0701010100000000000000F6
:1005D0000000000101000000000000000000000019
:1005E000000000000000000000000000000000000B
:1005F00000000000000000000000000000000000FB
:1006000000000000000000000000000000000000EA
:1006100000000000000000000000000000000000DA
:1006200000000000000000000000000000000000CA
:1006300000000000000000000000000000000000BA
:1006400000000000000000000000000000000000AA
:10065000000000000000000000000000000000009A
:10066000000000000000000000000000000000008A
:10067000000000002A2B28000000000000000000FD
:100680000000000000000029000000002C1E3420A3
:10069000212224342627252E362D3738271E1F20C9
:1006A0002122232425263333362E37381F0405060E
:1006B0000708090A0B0C0D0E0F1011121314151652
:1006C0001718191A1B1C1D2F3130232D3504050650
:1006D0000708090A0B0C0D0E0F1011121314151632
:1006E0001718191A1B1C1D2F3130354C0000000043
:1006F00000000000000000000000000000000000FA
:1007000000000000000000000000000000000000E9
:100710007E0F00D4FFFFFFC70000007810033400F5
:100720003100310074006500730074000000120392
:1007300059007500730061006E0061006700690078
:1007400000000403090409023B00020100A0FA09A9
:1007500004000001030101000921110100012240F0
:1007600000070581030800010904010001030000DE
:100770000009211101000122B600070582032000B3
:10078000011201000200000008EDFE041400010146
:1007900002000105010902A10185020901A100056C
:1007A000091901290815002501950875018102051F
:1007B00001093009311581257F95027508810609E7
:1007C000381581257F950175088106050C0A3802C8
:1007D0001581257F950175088106C0C00501098036
:1007E000A101850319012AB700150126B70095015B
:1007F00075108100C0050C0901A101850419012AA9
:10080000A002150126A002950175108100C0050106
:100810000906A1018506050719E029E7150025014C
:100820009508750181020507190029EF15002501BA
:1008300095F07501810205081901290595057501D5
:100840009102950175039101C005010906A10105F9
:100850000719E029E7150025019508750181029522
:1008600001750881010507190029FF150026FF0001
:10087000950675088100050819012905950575017A
:100880009102950175039101C00011241FBECFEFA5
:10089000DAE0DEBFCDBF11E0A0E0B1E0EAE4FDE4C4
:1008A00002C005900D92AE38B107D9F724E0AEE84A
:1008B000B1E001C01D92A53BB207E1F70E943413DD
:1008C0000C948D260C94000060E08CEB90E00E946C
:1008D000321780E00895FB01833B2DE59207C1F0BC
:1008E000843B2DE5920769F0823B9D4541F482816E
:1008F000882329F060E084EB90E00E94731A81E085
:10090000089582818823D9F360E08CEA90E0F5CFE6
:1009100082818823A1F080919201811106C081E03B
:100920008093920182EE0E94F2050E94841E9093B1
:100930009101809390018BE20E94F205E0CF8BE25F
:100940000E943E06DCCF80919201882371F0809155
:100950009001909191010E949C1E893E934028F045
:1009600082EE0E943E0610929201089581E0089561
:100970000E946B04089508950E94BB040895A5E0A9
:10098000B0E0E5ECF4E00C94042649835A833091FE
:10099000980189819A81311119C0662399F0222327
:1009A00089F00E94480A182F682F89819A810E9435
:1009B000240A69817A81812F0E94C3102596E3E081
:1009C0000C9420260E94360A182FF3CF0E94480A62
:1009D00069817A81F1CFFC01262F408151816281AA
:1009E000738184810E94BF04089581E00895CF93AC
:1009F000DF93EC0160E00E94EB04BE010E94BC04A6
:100A0000DF91CF9108950E94061208950E94091265
:100A1000089508950E94EF080E9409052FEF84E3CE
:100A20009CE0215080409040E1F700C00000089514
:100A30000E940A050E94CF1E08950E940A050E9486
:100A4000E01E08950F931F93CF93DF938C0161E015
:100A50000E94EB04EC01B8010E94B804811106C0A9
:100A600080E0DF91CF911F910F910895B801CE01E1
:100A70000E94691B8823A1F3B801CE010E94A81827
:100A8000882371F3B801CE010E94DB1A882341F359
:100A9000F8018281882361F0CB35FDE5DF0701F1A4
:100AA00058F4C115ECE5DE0791F0CF3DDC4591F03F
:100AB000C8010E94B604D5CFCD358DE5D80769F0C1
:100AC00090F0C83ADD45A1F70E941D05C9CF0E94EC
:100AD0001805C6CF0E94020FF7CF0E94400EE8CF44
:100AE0000E944A0EE5CF0E944E0EE2CF0E94001EE9
:100AF0000E9495050E94601808950E9499050E9421
:100B0000051E089508950E948205089581E00895C4
:100B10000E94860508950895CF93C82F0E948305EB
:100B20008C2F0E948805CF91089580E00E948C054B
:100B300008950E94B11C0E948C050895CF930E94D5
:100B4000B11CC82F809193018C1779F0C093930149
:100B50000E94901E6093940170939501809396017A
:100B6000909397018C2F0E948C05CF910895ABE054
:100B7000B0E0EDEBF5E00C9405264F8358876987CC
:100B80007A878B8761110E948B0D1E821D8285E002
:100B9000FE013796DE01119601900D928A95E1F7DC
:100BA0008C819D81892B61F449815A816B817C8183
:100BB0008D819E810E94B40C2B96E2E00C9421263C
:100BC00089819A8189238F3F79F3CE0101960E9412
:100BD000F5048111E9CFF0CFFC01808191810E9461
:100BE0007A0A0895CF93C82F8823B9F08CEF8C0F21
:100BF000813AA8F46C2F80910001909101010E942C
:100C0000261D882329F08C2F0E944B0D0E94AC0DCD
:100C10008C2F0E94430D0E94AC0DCF91089580E26D
:100C20008C0F883048F4C77081E001C0880FCA95E6
:100C3000EAF70E946E0DEFCFEBE5EC0FE33040F4E6
:100C4000F0E0E45BFE4F808190E00E94E61CE5CF7F
:100C5000E8E5EC0FE73150F4F0E0EE0FFF1FE25E45
:100C6000FE4F808191810E94FC1CD7CFCD3EA8F21F
:100C70008C2F0E94B8130E948B14CFCF882379F158
:100C80009CEF980F913A28F40E944B0D0E94AC0DF6
:100C9000089590E2980F983050F4877091E001C069
:100CA000990F8A95EAF7892F0E94740DEFCF9BE583
:100CB000980F933028F490E080E00E94E61C08959D
:100CC00098E5980F973128F490E080E00E94FC1C92
:100CD00008958D3E20F00E9412140E948B140895F6
:100CE0001F93CF93DF93182FEB010E94F2052097FB
:100CF00039F4812F0E943E06DF91CF911F91089514
:100D00008FE99FE00197F1F700C000002197EFCF36
:100D100070E060E0893311F460E570E00E947006D5
:100D20000895882321F00E946E0D0E94AC0D089555
:100D3000882321F00E94740D0E94AC0D0895B0E04C
:100D4000A0E0E5EAF6E00C94FE256C01D62FC72F53
:100D5000FC011281F580F2949FE0F9220E94640D5B
:100D6000E82E8823B9F0E12E1123A1F08C2F807F8B
:100D7000803421F080E28D0F8830D0F0809199028C
:100D800082FF16C082E00E940F0E0E94640D91E067
:100D9000E82EE926BC2EB2948FE0B822FBE0FB15CA
:100DA00008F468C0EB2DF0E0E157F94D0C94EF2505
:100DB000E12CF0CF0C2F0F70C07F11F00295007F57
:100DC000112399F0002359F080E28D0F883010F044
:100DD000D11107C0802F0E946E0D0E94AC0D8D2F87
:100DE00041C0802F0E947E0DF8CF8D2F0E943E06BD
:100DF000002309F43FC080E28D0F883010F0D1113C
:100E000004C0802F0E94740D03C0802F0E94840DA7
:100E10000E94AC0D2FC00C2F0F70C07FC03211F09C
:100E20000295007FDD2381F0D13009F463C01123E6
:100E300009F46DC0FF2009F463C0F601858180FFCD
:100E4000CECF8F7085835CC08091990282FD33C0C4
:100E5000112359F0002329F0802F0E946E0D0E946B
:100E6000AC0D80E00E94F20505C080E00E943E06C5
:100E70000111C7CFEB2DE850FF0B349720F40E94EF
:100E8000B11C0E948C05EE2089F00E94600D80FD4F
:100E90000DC0F60112820E945A0D0E948209C601FD
:100EA0000E94AF080E945A0D0E949209CDB7DEB78A
:100EB000E9E00C941A26112389F0F11006C00E9473
:100EC0008E0D802B0E949106D5CF21E0F212F7CF34
:100ED0000E948E0D802B0E94950DCCCFF11006C084
:100EE0000E94A20D802F0E949806C4CF31E0F31615
:100EF00009F2F6CF112331F085E08F1508F4BACF4F
:100F0000802FE0CF94E09F1508F4B4CFEBCFFF2003
:100F100049F3D93349F4FFEF27EE33E0F150204095
:100F20003040E1F700C000008D2F0E943E06A2CFA6
:100F30008C2F86958695837069F0813009F09ACF61
:100F40008D2F9C2F9370111102C090E080E00E94C1
:100F5000FC1C90CF8D2F9C2F9370111102C090E03C
:100F600080E00E94E61C86CF8D2F112329F00E947D
:100F7000B8130E948B147ECF0E941214FACF8C2FCC
:100F80008370A1F5111176CF4D2F4295469547708C
:100F9000440F440F2D2F2F7030E0042E02C0220F7B
:100FA000331F0A94E2F790E080E0D4FF09C08FE09D
:100FB00090E002C0880F991F4A95E2F780959095BE
:100FC000C695C695C370822B932BC23049F058F456
:100FD000C13019F00E9450094DCF0E9447094ACFF5
:100FE0000E94590947CF0E94440944CF8695112396
:100FF00011F08C2F8170882309F43CCF4D2F42953E
:1010000046954770440F440F2D2F2F7030E0042E6B
:1010100002C0220F331F0A94E2F790E080E0D4FF71
:1010200009C08FE090E002C0880F991F4A95E2F74F
:1010300080959095C695C695C370822B932BC23030
:1010400049F058F4C13019F00E94BD0913CF0E9435
:10105000B40910CF0E94C6090DCF0E9468090ACFBB
:10106000CF70112329F08C2F0E9482098D2F2ACF57
:101070008D2F0E9498068C2F0E949209FBCED23FA2
:1010800051F160F4D03FB9F0D13F81F0112309F460
:1010900049C0F110A4CE8C2F8F7121C0D33F11F124
:1010A000D43FA1F78091990282FD26C08C2F8F71C9
:1010B000112311F314C0112349F084E08F1508F4B3
:1010C000D9CE8C2F8F710E94A409D4CE95E09F15A4
:1010D00008F4D0CEF6CF8C2F8F711111CDCF0E9496
:1010E0008209C8CE112329F08C2F8F710E947609B6
:1010F000C1CE0E947109BECE112349F0CF718C2F51
:101100000E94820963E08C2F0E94F10DB3CE81E032
:101110000E940F0EE1E0EF1508F0ACCE82E00E94D5
:101120000F0EA8CEF110F5CE8C2F8F71A5CF0F9397
:101130001F93CF93DF93EC01688179818A810E94AC
:10114000850A8C010E94CF090E944309B801CE0193
:101150000E949F06DF91CF911F910F910895CF9329
:10116000DF93EC018B819C81892B29F08881998107
:1011700089238F3F51F4DF91CF910895CE010E94D2
:101180009708CE010E94F704F6CFCE010E942205F7
:101190008111F4CF0E94640D882369F38A8188232A
:1011A00051F38091990282FFE6CF82E00E940F0EF8
:1011B000E2CF90E080E00E94E61C90E080E00E9498
:1011C000FC1C0E948B0D0E94AC0D0E94A7140E9473
:1011D0008B1408950E94530D0E94D90808950E940F
:1011E0007B0D0E94EA08089592959F70963091F0C9
:1011F00058F4925F9F70923058F4803F19F030F4A9
:10120000883E30F481E008959A5FF4CF843FD1F3B3
:1012100080E00895883EB0F3813FD1F7F3CFFC0121
:1012200083819481892B29F08081918189238F3F4B
:1012300011F480E00895808191810E947A0A0E94D1
:10124000F4080895A5E0B0E0E8E2F9E00C94052682
:101250002596E2E00C942126A6E0B0E0E2E3F9E076
:101260000C9405262696E2E00C94212608950E940F
:10127000360908950E9437099093A00180939F0139
:101280000E94D908089508950E943A09089520916E
:101290009F013091A001822B932B0E943A0908955F
:1012A00020919F013091A001822393230E943A094B
:1012B000089520919F013091A001822793270E94D9
:1012C0003A0908950E94360908950E946209089516
:1012D0000E94650990939E0180939D010E94D90808
:1012E000089590E080E00E946809089521E030E0D0
:1012F000A90102C0440F551F8A95E2F7CA010E9456
:101300006809089521E030E002C0220F331F8A955A
:10131000E2F780919D0190919E01822B932B0E9478
:101320006809089521E030E002C0220F331F8A953A
:10133000E2F72095309580919D0190919E01822346
:1013400093230E946809089521E030E002C0220F33
:10135000331F8A95E2F780919D0190919E0182272B
:1013600093270E946809089520919D0130919E0164
:10137000822B932B0E946809089520919D01309142
:101380009E01822393230E946809089520919D0164
:1013900030919E01822793270E946809089508953D
:1013A000262F277091E001C0990F2A95EAF723E0D4
:1013B000769567952A95E1F7660F771F660F771F79
:1013C000FA01E60FF71F50E040E0682F70E08191CE
:1013D000DF0111979B01042E02C0369527950A94D0
:1013E000E2F7217021952827292328272C934F5F86
:1013F0005F4F4430510559F70895A82FA77023E097
:10140000969587952A95E1F7880F991F880F991F60
:10141000FB01E80FF91F50E040E080E0219130E04F
:101420000A2E02C0369527950A94E2F721703327D9
:10143000042E01C0220F0A94EAF7822B4F5F5F4F00
:101440004430510559F70895262F923070F48330B7
:1014500060F4682F70E083E0989F600D711D112487
:1014600049E951E0822F0E94D0090895292F923036
:1014700068F4833058F490E069E971E033E0239F29
:10148000800D911D11240E94FD09089580E00895AA
:10149000B0E0A0E0EEE4FAE00C94FE257C010091BF
:1014A0009D0110919E0180919F019091A001082BB8
:1014B000192BCFE0D0E0CC24C394D12CBC2EC60194
:1014C0000C2E02C0880F991F0A94E2F78023912303
:1014D000892B49F4219790F7B12C8B2DCDB7DEB72E
:1014E000E9E00C941A26B7018C2F0E94DE100197B8
:1014F00089F3F3CFCF93DF93EC010E94480ABE013A
:101500000E94DE10DF91CF9108951F93CF93DF9358
:10151000EB0190919801992339F0CB010E947A0A4E
:10152000DF91CF911F910895882369F0CB010E942C
:10153000480A182F682FCE010E94240ABE01812F6D
:101540000E94DE10EDCFCB010E94360A182FF6CF95
:101550001F93CF93DF93C091A10116E08091A20168
:101560008C1304C0DF91CF911F910895D0E01C9F90
:10157000F0011D9FF00D1124ED55FE4F408151816A
:1015800062817381848195810E942C092196C770A4
:10159000E5CF4091D3015091D4016091D501709174
:1015A000D6018091D7019091D8010E942C0908950D
:1015B0001F93CF93DF938091D801807F09F049C0BA
:1015C0008091D501882309F444C08091A101C09184
:1015D000A2016091D3017091D401A091D601B09184
:1015E000D701D62FD72316E0C81799F190E01097AE
:1015F00011F0DF3F19F401968770F6CF189F900124
:10160000199F300D1124F901ED55FE4F418147130B
:10161000F2CF40814613EFCF42814111ECCF43819D
:1016200054814A1B5B0B483C510528F78091D80137
:101630008F7080618093D801F901E855FE4F808159
:101640008F708061808383ED91E00E94AF080E94DB
:10165000A80ADF91CF911F910895A1E1B0E0E3E3E3
:10166000FBE00C94FD258C0185E0F801DE011D9660
:1016700001900D928A95E1F7F801E28083EDC82E82
:1016800081E0D82E6091D6017091D7016115710566
:1016900009F44EC19091D3012091D401892F822366
:1016A0008F3F09F445C140815181A380B480F090FF
:1016B000D501F501E61BF70BFF2009F4EAC0809184
:1016C000D801382F307FE83CF10508F0A3C0311174
:1016D0006DC0FE2C251316C0941314C0E11012C067
:1016E0008F7080618093D8010E94C90AC6010E9450
:1016F000AF088091D801F80185838F2D6196EAE0CB
:101700000C941926A114B10429F0842F85238F3F4E
:1017100009F027C180E0F82FF170DF2E80FF3CC078
:101720008091A1012091A20136E0821315C04D875E
:101730005E878D859E850E947A0A292F22952F70BB
:101740002230F0F0243018F59F70F1F0F801958107
:10175000907FD1F4D12C1EC090E0389FF001399FCA
:10176000F00D1124ED55FE4F6181651306C06081B7
:10177000641303C06281E6120FC001968770D5CF53
:101780009F7011F0882331F3805E883018F3C80110
:101790000E94AF08FD2CB1CFEE2009F4AECF8091AE
:1017A000D80181608093D801F12CA7CF251306C002
:1017B000941304C0F801EE2009F487C0C8010E9408
:1017C0000F09882319F1EE2009F18091D8018032A8
:1017D00070F02091D3013091D40138872F8319867E
:1017E000BB86AA868C87CE0107960E94AF0886E04A
:1017F000F801A3EDB1E001900D928A95E1F70E9406
:10180000D80A0E94C90AFF24F39477CFC8010E9426
:10181000AF08F9CF311113C07A2DB98AA88A6E2D7D
:1018200089890E94220983ED91E00E94AF0886E039
:10183000F60111928A95E9F70E94C90AB5CF2513DE
:101840000FC094130DC0E1100BC0F8018583C801CF
:101850000E94AF0886E0F60111928A95E9F74DCF14
:10186000C8010E940F09882389F2EE2079F2809145
:10187000D801803208F4BBCF2091D3013091D4013C
:101880003A8329831B82BD82AC828E83CE0101966E
:10189000ACCFE83CF10508F03EC0FE2CEE2009F488
:1018A000B5CF25132AC0941328C08091D80180FD9C
:1018B0001BC0982F907FC1F0F8018583903F31F0D5
:1018C000982F907F905F8F70892B8583C8010E942D
:1018D000AF0886E0F801A3EDB1E001900D928A9582
:1018E000E1F70E94C90A09CF86E0F801A3EDB1E053
:1018F00001900D928A95E1F700CFC8010E940F096F
:10190000811175CF8091D80181608093D801C80181
:101910000E94AF08F2CE7A2DB98AA88A6E2D8989E5
:101920000E94220986E0F60111928A95E9F7D9CF43
:10193000EE2009F46BCFC8010E940F09F82E88230E
:1019400009F464CF86E0F801A3EDB1E001900D92B7
:101950008A95E1F783ED91E00E94EC050E94D80A98
:10196000C0CF81E08E25D7CEACE0B0E0EAEBFCE062
:101970000C9404264F83588769877A878B879C87C6
:10198000CE0107960E942D0B882369F08A859B85DE
:10199000892B39F04F815885842F85238F3F09F09B
:1019A0006BC016E05FC086E0FE013796DE0111963F
:1019B00001900D928A95E1F78A859B85892B89F3A1
:1019C0008F81988589238F3F61F32091A20130E0B8
:1019D000C9010196877099274091A10148171906FE
:1019E00071F40E94EF081092A2011092A10186E00A
:1019F000E3EDF1E0DF011D928A95E9F7D2CF96E0A1
:101A0000929FD001939FB00D1124AD55BE4FFE01A2
:101A1000319601900D929A95E1F78093A2010E9470
:101A2000A80ABFCF819FC00111248D559E4F0E94EF
:101A30002D0B8823E9F0E091A1011E9FF0011124F4
:101A4000ED55FE4F40815181628173818481958182
:101A50000E942C098091A10190E00196877099273E
:101A60008093A1018091A1019091A2018913DACF05
:101A70002C96E3E00C94202669857A858B859C85DD
:101A80000E942C098ECF682F809100019091010156
:101A90000E94A61D0895682F809100019091010178
:101AA0000E94B41D089580910001909101010E944F
:101AB000C21D08958091F9018595859585950895B4
:101AC0008091F901877008959091F901977081E0F4
:101AD00009F480E0089580911C02089590911C0201
:101AE000892B80931C020895809590911C02982365
:101AF00090931C02089510921C02089590911B026D
:101B0000892B80931B020895809590911B02982346
:101B100090931B02089510921B0208958091FA0180
:101B2000089508950E94910D08959091990292FF51
:101B300008C09091FA01981721F08093FA010E9451
:101B4000920D08958091FA01882329F01092FA01EC
:101B500080E00E94920D0895CF93DF93E091000101
:101B6000F091010180911C028083E0910001F091CD
:101B70000101808190911B02892B80839091FA0151
:101B8000992381F0E0910001F09101018081892B7E
:101B9000808380910001909101010E94121D8111AA
:101BA0000E94A20DC0910001D091010140E250E0DD
:101BB00069ED71E0CE010E943526892B59F080E253
:101BC000FE01A9EDB1E001900D928A95E1F7CE01F9
:101BD0000E94BE1CDF91CF91089508950E94ED0DE3
:101BE00008959091990292FF11C098E0899F900109
:101BF0001124622B6093F9010E9482098091F901FE
:101C00008595859585950E94EE0D08950E9482091F
:101C100008951092F90180E00E94EE0D08959091D0
:101C2000F901809589238093F901282F277091F479
:101C3000282F082E000C330B9217130659F09091A1
:101C4000990292FF07C08595859585950E94920916
:101C50000E94090E08959091990292FB222720F983
:101C6000281769F080FB92F990939902809198026D
:101C7000909199020E947C0E82E00E940F0E0895BE
:101C80008091990282FB882780F991E089270E9440
:101C90002B0E089581E00E942B0E089580E00E9493
:101CA0002B0E08956FEF7FEF90E080E00E94772683
:101CB000089590E080E00E94532621E0883E9E4FE8
:101CC00009F020E0822F089582E090E00E944B26E8
:101CD000089583E090E00E944B260895CF9384E01E
:101CE00090E00E944B26C82F82E290E00E944B2693
:101CF000982F8C2FCF910895CF93C92F682F84E010
:101D000090E00E9459266C2F82E290E00E945926B2
:101D1000CF910895AB01BC018FE090E00E946B264B
:101D20000895AB01BC0183E190E00E946B26089509
:101D300060E070E0CB010E94910E089560E070E0D9
:101D4000CB010E948A0E0E94980E089568EE7EEFE5
:101D500090E080E00E94772660E082E090E00E94C0
:101D6000592660E083E090E00E9459261092A0017D
:101D700010929F0160E084E090E00E94592664E0A8
:101D800082E290E00E94592660E085E090E00E94A7
:101D9000592660E086E090E00E9459266FEF87E0C8
:101DA00090E00E94592640E050E0BA0188E090E0BF
:101DB0000E946B2660E08DE090E00E94592640E092
:101DC00050E0BA0188E190E00E946B2660E087E174
:101DD00090E00E94592640E050E0BA018CE190E08A
:101DE0000E946B2670E060E080E290E00E9477261F
:101DF00040E050E0BA0188E190E00E946B260E942A
:101E00009E0E08950E94A60E0895682F8EE090E021
:101E10000E94592608950E94901E60932502709397
:101E200026028093270290932802609321027093E8
:101E30002202809323029093240208950895089526
:101E40000E941F0F089508950E94230F089588ECA3
:101E500091E10E94A71C0E941E0F0E94200F08956E
:101E600081E008950E94300F0895089508950E941A
:101E7000350F0E94360F08950E94E7110E948B05CE
:101E800008950E947B1E0E94A2120E943C0F80E0D7
:101E90000E9408160E94240F0895AAE0B0E0E3E52E
:101EA000FFE00C94FD250E94B21210911F0280E009
:101EB0000E940C1218132FC01091200281E00E9482
:101EC0000C12181328C00E94841E8C0180911D02E0
:101ED00090911E0208171907A1F08FEF89838A835A
:101EE0001B820E94841E8160782F9D838C83498190
:101EF0005A816B818D810E94B70510931E02009359
:101F00001D020E947E180E94C9140E949E052A96F6
:101F1000EAE00C9419268091290281FD0E94121298
:101F20000E94320FC82E8FE1A82E82E0B82E10E05A
:101F3000812F0E940C12082FF50181915F01081773
:101F400031F1D02ED826F12CEE24E3948E2D8D2164
:101F5000B1F0CC20A1F0FE821F8391E08E2D802372
:101F600009F490E098870E94841E8160782F9A87F8
:101F700089874E815F8168858A850E94B705F394C1
:101F8000EE0CF3E0FF12E2CFF50131970083113040
:101F900039F40E940B0F0E947E180E944417B3CFA1
:101FA00011E0C6CFCF93DF930E94E310EC018115BF
:101FB00021E5920708F042C0811530E5930708F04B
:101FC0009FC0883E910530F5803E910508F094C091
:101FD000883A910588F4853A910508F086C08130E9
:101FE000910509F489C0009709F486C0049708F0A8
:101FF00083C0D0E0C0E080C08F3B9105D0F7C85AC5
:10200000D0E0CC0FDD1FC15BDE4F0990D881C02D21
:10201000D46472C0811540E2940750F4C11581E088
:10202000D80708F069C0CD3ED10518F3D06564C06B
:1020300081159044F0F2DF70D06A5EC0811535E5FD
:10204000930718F5811544E5940708F085C0C1157C
:1020500083E5D80708F06CC0C11522E5D20708F463
:1020600062C0CE018370992721E030E002C0220FC8
:10207000331F8A95E2F7C695C69580E2C89FE001B6
:102080001124C22BD32BDC6837C0811539E59307A7
:10209000A8F4811548E5940708F063C0C11586E5EA
:1020A000D80708F0A6CF8C2F0E948511C82FD0E04A
:1020B000DC2FCC27CC27DF71D0621EC081152AE52A
:1020C000920708F453C090568115904208F091CFC2
:1020D0008D2F8F710E94851190E0982F8827882777
:1020E0009F719C012C2BE901E7CFC55AD0E0C35862
:1020F000DE4FC881D0E0D064CE01DF91CF9108954A
:102100008370992721E030E002C0220F331F8A95A7
:10211000E2F7C695C69540E2C49FE0011124C22BA8
:10212000D32BDD68E9CFDC2FCC27C16FD06AE4CF99
:10213000CE018370992721E030E002C0220F331FC7
:102140008A95E2F7C695C69540E2C49FE001112446
:10215000C22BD32BDA68D0CFD82FCC27C46FD06A4C
:10216000CBCFD82FCC27C06FD06AC6CF8F700E943C
:10217000851134E0D695C7953A95E1F7CF709C2F3D
:10218000EC01D069B9CF972F7230A8F4633098F47E
:1021900070E023E0929F600D711D1124FB0196E019
:1021A000899FE00DF11D1124EE0FFF1FE450FF4F3A
:1021B00085919491089580E090E008950E94C31065
:1021C0000E94D20F089582389105B9F1B0F481339D
:1021D000910509F47DC048F48932910509F46DC078
:1021E0008A32910509F47BC008958533910509F47D
:1021F0005FC08933910509F10895833E9105D9F1B6
:1022000038F4803E910529F1823E910579F10895D7
:10221000863E9105D9F1873E910509F43EC0843E82
:10222000910541F52091990221FF24C080919802E7
:1022300084FD19C087EE90E00895209198022370E4
:1022400009F05AC02091990223FF14C089E290E05E
:1022500008952091980220FD38C03091990230FFF6
:1022600009C024FF43C090E080E0089520919802C7
:1022700022FDF7CF08952091980222FD3AC03091B7
:10228000990230FD39C024FFF5CFEDCF209198029F
:1022900023FFF0CF24FDE7CFCDCF2091980223FD7F
:1022A0002EC03091990231FFEECF84EE90E0089578
:1022B0002091980225FFDECFC9CF2091980225FDFD
:1022C00021C02091990223FFD5CF89E390E0D2CF9E
:1022D0002091980226FFCECF8AE290E008952091C7
:1022E000980226FFC7CF81E390E0089583EE90E047
:1022F000089582EE90E0089580EE90E0089586EED5
:1023000090E0089585E390E008959091980292FFFF
:1023100006C0282F28712830F9F4877F846093FF46
:1023200006C0282F28712831F1F4877E846120911E
:10233000990220FF06C0382F38713830D9F4877FD2
:10234000816021FF06C0282F28712831D1F4877EB3
:10235000816194FD877E0895282F24712430F9F639
:102360008B7F8860DCCF282F2471243101F78B7E8E
:102370008861DDCF382F3171313019F78E7F886059
:10238000E0CF282F2171213121F78E7E8861E1CFA6
:1023900080E008950E94520E08950E94B2122FEF1D
:1023A00086E791E0215080409040E1F700C00000B6
:1023B0000E94B21280E00E940C1280FF04C00E94B2
:1023C000CA110E94CF1E08950E94CD1108950E9447
:1023D000590E811102C00E94020F0E94640E809368
:1023E00029020E946E0E90939902809398020E9497
:1023F000E4110E94690E90E00E94440980919D01C1
:1024000090919E010E946509089508950E94051209
:1024100008950E94A3040895E82FF0E0E456FD4FCC
:1024200080810895089580EA8A95F1F7089500C0A3
:1024300008950E9413120895F894E82FE295EF7022
:10244000F0E031A1282F2F7081E090E001C0880FCB
:102450002A95EAF7982F9095932391A392A1892B1F
:1024600082A37894089585E30E941C1286E30E945B
:102470001C1284E30E941C1286EC0E941C1287E945
:102480000E941C120895B0E0A0E0E9E4F2E10C948F
:10249000FF25EC01D62E062F10E0C8018D579E4F68
:1024A0007C01FC0180818F3F09F445C0F894E82F3E
:1024B000E295EF70F0E091A18F7021E030E001C073
:1024C000220F8A95EAF7892F822B81A382A120957A
:1024D000282322A378940E941712E0E8F1E043E851
:1024E00051E031E0C12C21912F3F51F1A22FA29553
:1024F000AF70B0E090968C9190E02F7002C09595EF
:1025000087952A95E2F780FD1BC0832FC82A330FD9
:102510004E175F0741F7F70180818F3F11F00E944E
:102520001C1261E0C11001C060E08D2D0E941912E3
:10253000C00FD11FC882CDB7DEB7E8E00C941B26D0
:1025400080E0E4CF0E94331210929D0210929C0210
:1025500010929B0210929A0282E00E94E8120E945E
:1025600003050895A2E0B0E0E8EBF2E10C94042644
:102570001A82198260E0CE0101960E94431261E046
:10258000CE0101960E94431242E050E0BE016F5F0F
:102590007F4F8AE992E00E94352621E0009709F4F6
:1025A00020E0892B31F089819A8190939B0280935E
:1025B0009A0242E06CE972E08AE992E00E94E91234
:1025C000182F0E940605812F2296E3E00C94202606
:1025D0000895CF92DF92EF92FF920F931F93CF93C4
:1025E0006C017B01042F222349F081E080932C02AF
:1025F0000E94841E90932B0280932A02C0912C0289
:10260000C1110AC0C0E08C2FCF911F910F91FF9094
:10261000EF90DF90CF90089580912A0290912B0245
:102620000E949C1E059770F310E0A801B601C70137
:102630000E943526892B41F0A801B601C7010E94EE
:10264000422610922C02DFCFC0E0FBCF0E949620E2
:102650000E94410F0E94A32008950E94A8200E947A
:102660004D0F0E94C22008950E941D1E0E947C20D2
:102670000E94270F0E9426130E942D130E94370FDD
:10268000FBCF8091330280FF0DC06091070170E0A5
:10269000660F771F6038710570F56115710569F176
:1026A000862F089581FF07C06091070184E0689F2D
:1026B000B0011124EFCF6091070182FD0AC0809123
:1026C00032028823A9F02091060160910701821748
:1026D00010F088E0ECCF869FC001112433E0880F12
:1026E000991F3A95E1F7622F70E00E94DB25D2CF67
:1026F00068E070E0D5CF8FE7089581E0089580917C
:10270000330280FF0CC06091030170E075956795FE
:10271000759567956115710549F1862F089581FFBB
:1027200006C06091030170E075956795F3CF6091E5
:10273000030182FD0BC0909131029923A1F06091B9
:10274000020180910301961738F0682F70E060381D
:10275000710500F38FE70895899FC001112470E08F
:102760000E94DB25F4CF61E070E0D7CF81E00895CF
:102770008D3E31F40E944113819580933702089574
:102780008E3E19F40E944113F8CF8F3E31F40E941F
:1027900041138195809336020895803F19F40E9479
:1027A0004113F8CF893F29F40E947F1380933802A8
:1027B00008958A3F21F40E947F138195F7CF8B3FC4
:1027C00031F40E947F1381958093390208958C3FE4
:1027D00019F40E947F13F8CF9FE0980F983070F49F
:1027E000815F990B21E030E001C0220F8A95EAF762
:1027F00080913502822B8093350208958D3F31F40C
:102800008091330281608093330208958E3F21F4DA
:10281000809133028260F7CF8F3FB9F78091330206
:102820008460F1CF409136028D3E59F48091370299
:1028300087FF0DC01092370241110BC01092320277
:1028400008C08E3E81F48091370218169CF3442311
:1028500081F08091380290913902892B09F05AC099
:102860001092310208958F3E49F447FFF0CF109245
:102870003602809137028111ECCFE0CF803F19F40E
:102880001416ACF3E4CF90913802893F29F419165D
:10289000F4F610923802DBCF8A3F19F497FFD7CFB6
:1028A000F8CF909139028B3F29F497FFD0CF109247
:1028B0003902CDCF8C3F19F41916CCF3C8CF9FE065
:1028C000980F983090F4815F990B21E030E0B901C6
:1028D00002C0660F771F8A95E2F7CB018095909131
:1028E0003502892380933502B2CF8D3F31F4809138
:1028F00033028E7F80933302AACF8E3F21F48091E2
:1029000033028D7FF7CF8F3F09F0A1CF8091330243
:102910008B7FF0CF08950E94841E9C019091360217
:1029200080913702982B21F03093300220932F02B0
:102930009091380280913902982B21F030932E0229
:1029400020932D0284E392E00E94D81C089586E033
:10295000E4E3F2E0DF011D928A95E9F7109232027A
:1029600010923102109233020895FC01828181118C
:102970000EC0838181110BC08481811108C091E058
:102980008581811101C090E0892F8170089581E0D7
:10299000FCCFA6E0B0E0EFECF4E10C94042686E076
:1029A000E4E3F2E0DE01119601900D928A95E1F7E1
:1029B00010923602109237021092380210923902A9
:1029C0008B819C81892B89F080912F02909130021C
:1029D0000E949C1EAC01909132029923C9F1809112
:1029E00008018417150608F440C08D819E81892B4B
:1029F00091F080912D0290912E020E949C1EAC01BC
:102A000090913102992309F471C0809104018417D7
:102A1000150608F479C0BE016F5F7F4F84E392E032
:102A20000E94D41D811105C084E392E00E94B51478
:102A300081110E948B1486E0FE013196A4E3B2E07E
:102A400001900D928A95E1F72696E3E00C942026FA
:102A5000209109018AE0289F90011124241735074D
:102A600020F69F5F9093320202C09F3FD1F71B81F7
:102A7000112359F00E9441139FEF11160CF491E0BD
:102A8000899F802D1124809336021C81112359F0D7
:102A90000E9441139FEF11160CF491E0899F802D45
:102AA00011248093370230913602332309F49DCFED
:102AB00020913702222309F498CF45EB3403C0015B
:102AC0001124992359F09093360245EB2403900189
:102AD0001124332339F03093370287CF81E080937C
:102AE0003602F3CF81E0809337027FCF209105013A
:102AF0008AE0289F900111242417350708F08BCF16
:102B00009F5F9093310202C09F3FD1F71D81112337
:102B100059F00E947F139FEF11160CF491E0899FEA
:102B2000802D1124809338021E81112359F00E94B8
:102B30007F139FEF11160CF491E0899F802D1124D3
:102B40008093390230913802332309F464CF209105
:102B50003902222309F45FCF45EB3403C00111246D
:102B6000992359F09093380245EB240390011124E6
:102B7000332339F0309339024ECF81E0809338020D
:102B8000F3CF81E08093390246CFB0E0A0E0EBECD8
:102B9000F5E10C94FF256C017B0164E670E088E7A9
:102BA0000E94C11BEC0197FD12C010E000E0F6018D
:102BB000E00FF11F849164E670E00E942D1CEC018F
:102BC000892B29F40F5F1F4F0E151F0581F70E94F7
:102BD000A31CCE01CDB7DEB7E8E00C941B26089508
:102BE0000E94EF150895EEE9F2E080E092E0DF0147
:102BF0009C011D9221503040E1F7F093A304E09333
:102C0000A2048FEF9FEF9093660280936502089570
:102C10000E94EF150E94F0158093610280FD0FC0A5
:102C200080E8809360020E94BB1B6DE070E08FE142
:102C300091E00E94C515892B21F080E0089580E283
:102C4000F0CF8091610263E070E081FD26C08CE1ED
:102C500091E00E94C515892B81F76DE070E08CE052
:102C600091E00E94C515892B41F70E94901E605A81
:102C700075418F4F9F4F60939E0470939F04809384
:102C8000A0049093A1040E94F31581E08093640254
:102C90008093630210926202089589E191E0D9CF96
:102CA0002091600236E0839FC0011124629F800D55
:102CB000911D1124811522E0920714F090E080E02C
:102CC00082569D4F9093A3048093A204089520916F
:102CD000A2043091A3042859324040916002642F2D
:102CE00070E0C9010E94C725481B463010F4240F2C
:102CF000311D211582E0380710F030E020E0225627
:102D00003D4F3093A3042093A20408951F93CF93C3
:102D1000DF93162F8A3039F481E00E94FF16DF918D
:102D2000CF911F9108958D3011F480E0F6CFC091BE
:102D3000A204D091A30496E0FE01AAE3B2E00190C0
:102D40000D929A95E1F7803EB8F086E0FE0111926F
:102D50008A95E9F711111CC0C091A204D091A30477
:102D600046E050E0BE018AE392E00E943526892BBE
:102D7000E9F40E946716D3CFF6E08F9FB0011124CB
:102D8000645D7E4F46E050E0CE010E942C26E2CFEB
:102D9000E091A204F091A3049F012A5F3F4F2E17F8
:102DA0003F07D1F2808180958193F9CFCE59D240EF
:102DB000CE0125E0969587952A95E1F721E030E050
:102DC000A90102C0440F551F8A95E2F7CA0140913C
:102DD000650250916602842B952B259645E0D69589
:102DE000C7954A95E1F702C0220F331FCA95E2F753
:102DF000822B932B9093660280936502BACFCF9378
:102E0000382FE091A204F091A304EE59F2402091F2
:102E10006002622F70E0CF010E94C725281B822F1D
:102E2000332369F066E00E94BB25C82FC15010F41F
:102E3000CF91089560E080E20E948616F7CF9F014F
:102E4000280F311D2115324018F080E0F0E0E0E05D
:102E50008E0F9F2F911D82569D4F9093A3048093B8
:102E6000A204E6CF1F93CF93DF93EC01162FFE0150
:102E70008491811104C0DF91CF911F910895612F3A
:102E80000E9486162196F3CF80916402811103C0BF
:102E90008091630208950E94901E605A75418F4F81
:102EA0009F4F60939E0470939F048093A00490931F
:102EB000A104809163028111EBCF62E070E08AE0AF
:102EC00091E00E94C515892B19F781E08093630278
:102ED000DFCF2F923F925F926F927F928F929F925D
:102EE000AF92BF92CF92DF92EF92FF920F931F9318
:102EF000CF93DF9380916402882369F0209165026B
:102F0000309166022115310531F08091620261E055
:102F100070E0882399F0DF91CF911F910F91FF907E
:102F2000EF90DF90CF90BF90AF909F908F907F9069
:102F30006F905F903F902F9008958F5F082F10E063
:102F40001B01082E02C0220C331C0A94E2F7A901CF
:102F500042215321452B89F39091610290FD44C099
:102F60008295880F807680930C019801369527957D
:102F70003695279520930F01815E80930D01109265
:102F8000100124E630E047E050E06AE071E088E7B5
:102F90000E945B1C892B09F0BECFA80125E0440FDD
:102FA000551F2A95E1F78091610280FD2BC04256A2
:102FB0005D4F04E610E020E230E060E488E70E9424
:102FC0007C1C892B09F0A7CF0E944417E101C09512
:102FD000D0958091650290916602C823D923D09341
:102FE0006602C093650297CF880F880F880F809381
:102FF0000C0110920F01895F80930D0183E0809393
:103000001001BFCFE0E4F2E080E2DF011D928A957B
:10301000E9F7A9E8B1E005E811E08DE8C82E81E004
:10302000D82E97E0592E772473948D91E801299139
:103030008E01240F352F311D22563D4FE82FF0E031
:10304000E05CFD4F90E080E0652C681A872C082E2C
:1030500001C0880C0A94EAF77901A12CE701B99024
:103060007E01B820662D6A196770962E062E000C18
:10307000770BDB2D01C0DD0F9A94EAF7719561950E
:1030800071096770772701C0B6946A95EAF7BD2A7F
:103090006081962E9B289082A39468E0A612DECFD2
:1030A000019631968830910579F6CA16DB0609F04B
:1030B000BCCF04E610E020E230E040E452E07DCFF7
:1030C0008091630290916402911103C091E089277D
:1030D0000895882369F062E070E088E091E00E9442
:1030E000C515892B19F0809163020895109263022F
:1030F00080916302EBCF0E94640408950F931F93A5
:1031000080916402882309F160E080E00E945016FB
:103110000E947B180E946917809163028823A9F09E
:103120000E94901E00919E0410919F042091A00483
:103130003091A104601B710B820B930B6F3F7F4F8B
:103140008F4F9F4710F40E9460181F910F910895B0
:10315000CF93DF93EC01FB018281882309F464C1E2
:10316000C430FDE5DF07E0F5CB3F9CE5D90730F43F
:103170009E0122503C4524313105D8F50E946E0E47
:103180009093990280939802C231ECE5DE0709F42E
:103190001FC108F06EC0C9308CE5D80709F4F2C031
:1031A00008F03FC0C530ECE5DE0709F4DBC058F598
:1031B000C3308CE5D80709F4CDC008F0CFC08091AA
:1031C00098028160C230DC4509F4AEC0809198025B
:1031D000909199020E947C0E0E94EF0880E009C045
:1031E000C63AEDE5DE0751F238F4C2369DE5D9075F
:1031F00029F2DF91CF9108959E012E5A3D4523304B
:103200003105B8F7BBCF809198028062C730FCE5EA
:10321000DF0709F489C008F4B1C080919802806486
:1032200083C0CD309CE5D90709F4BAC070F4809111
:1032300098028E7FCB30FCE5DF0709F475C008F4F7
:10324000A7C0809198028D7F6FC0CF309CE5D907D1
:1032500009F4B6C008F4A8C0C031FCE5DF0709F4E2
:10326000B3C0C131DC4509F0B1CF809198028F7BAA
:103270005BC0C1159DE5D90709F4B4C098F5CB3FF3
:10328000FCE5DF0709F472C0B8F4C4319CE5D90746
:1032900009F4B6C008F4A2C0C531DC4509F096CFE8
:1032A0008091980282FB992790F921E0922790FB68
:1032B00082F990FB83F938C0CD3F8CE5D80709F43B
:1032C00077C008F457C0CE3FECE5DE0709F474C0C0
:1032D000809199028360CF3FDC4509F077CF8093DE
:1032E000990274CFC2368DE5D80709F496C068F408
:1032F000C230EDE5DE0709F48CC008F477C0C330B6
:10330000DD4509F063CF80E085C0CE3A9DE5D90761
:10331000E9F068F490919802892F8E7F90FF816088
:10332000C63ADD4509F052CF809398024FCFCF3A8D
:103330008DE5D80789F1C03BDD4509F047CF909175
:103340009902892F877F93FF8860C9CF8091990266
:103350008860C5CF809198028260E6CF8091980204
:103360008460E2CF809198028860DECF80919902DC
:103370008160B5CF809199028260B1CF809198022F
:103380008061D2CF0E94EF08809198028068CCCFF4
:10339000809198028C60C8CF80919902877F9FCFDF
:1033A000809198028B7FC0CF80919802877FBCCF9D
:1033B000809199028E7F93CF809199028D7F8FCFDC
:1033C000809198028F7EB0CF809198028F7DACCF94
:1033D0000E94EF08809198028F77A6CF8091980283
:1033E000837FA2CF809199028C7F79CF80919902BF
:1033F000982F909591708E7F892B90FB81F96FCFDC
:103400000E94EF0890919802892F97FB87F98058C6
:103410008BCF81E00E94050FD9CE90919802892F21
:103420008F7E94FF806180CF81E0E3CEB0E0A0E0AA
:10343000ECE1FAE10C940026E82FF0E0E459F94FB2
:10344000D490282F26952695269530E0F901E45F43
:10345000F84F0491877010E0082E02C0159507956B
:103460000A94E2F701701127F901E450F94FE49052
:10347000F12C082E02C0F594E7940A94E2F791E04B
:10348000E922FF24F901E451F94FC491D0E002C0D0
:10349000D595C7958A95E2F7C170DD27011511050D
:1034A00019F081EE0E94F205E114F10419F086EEA4
:1034B0000E94F2058D2D0E948806E114F10419F096
:1034C00086EE0E943E060115110519F081EE0E945C
:1034D0003E06CD2B19F08CE20E948806CDB7DEB7F0
:1034E000E7E00C941C26EF92FF920F931F93CF936B
:1034F000DF938C01F62E8AE0E82EF8018491882370
:1035000009F454C0813009F04DC0E8012196FE0154
:103510008491813091F42196FE0184910E94880665
:103520008E010F5F1F4F8F2D815038F3EFE9FFE0C1
:103530003197F1F700C00000F7CF823039F4E8018D
:103540002296FE0184910E94F205EACF833039F47D
:10355000E8012296FE0184910E943E06E1CF84306C
:10356000F9F6E8012296FE01249190E080E0FE0148
:1035700031962053330B2A30310548F0019780F201
:10358000EFE9FFE03197F1F700C00000F7CFE89EC8
:10359000A001E99E500D1124C901840F951F2491AB
:1035A000EF01E5CF0E94161AE801BACFCDB7DEB71A
:1035B000E6E00C941D26CF93DF93EB0186319C450A
:1035C00011F50E946B0D9A81992399F08A7A91E006
:1035D00009F490E090936702811109C089E20E948A
:1035E000430D0E94AC0D80E0DF91CF91089585E3FB
:1035F000F6CF80916702811104C089E20E944B0DD1
:10360000F0CF85E3FBCF81E0EFCF0F931F93CF93F4
:10361000DF93C42FD22FFC0182818823C9F040930D
:103620006A020E94841E909369028093680280E27D
:103630008C0F883040F4C77081E001C0880FCA95B4
:10364000EAF70E949106DF91CF911F910F910895A3
:1036500010916A02141332C080916802909169023D
:103660000E949C1E883C910548F5C0E2CD0F1D17B5
:10367000B9F080E2810F883040F4177081E001C01A
:10368000880F1A95EAF70E949806C83048F481E03E
:103690009D2F977001C0880F9A95EAF70E949106B6
:1036A000802F0E948806C83070F6D77081E001C074
:1036B000880FDA95EAF70E949806C5CF80E28C0F52
:1036C000883008F6C77081E001C0880FCA95EAF714
:1036D000F2CF0F939C01CB01243F4CE5340759F105
:1036E000A8F4293DFCE53F0701F12A3D4CE53407EC
:1036F000D1F1283D3C4591F406E221EE41EE68ED22
:103700007CE50E94051B80E00F910895263FFCE5B3
:103710003F07E9F0B0F0273F3C45F9F0FC0182811A
:10372000882339F110926A02EFCF07E225EE45EEC9
:1037300069ED7CE5E6CF06E221EE40EE64EF7CE544
:10374000E0CF07E225EE44EE65EF7CE5DACF06E256
:1037500021EE42EE66EF7CE5D4CF07E225EE46EEA1
:1037600067EF7CE5CECF08E221E045EE6AED7CE52F
:10377000C8CF81E0C9CF1092B9008CE08093B80027
:103780000895B0E0A0E0E7ECFBE10C94FC25B82E36
:10379000EB010E94841E6C01EE24E394F12CC431F1
:1037A000D10560F025E0E22EF12CCF3FDC0731F0AF
:1037B000CE0164E170E00E94C7257B0184EAA82E57
:1037C00094E8992E1092BC00A092BC000E94841E26
:1037D0008C018091BC0087FF0DC08091B900887F6B
:1037E0008830F9F08091B900887F8031D1F00FEFF7
:1037F0001FEF08C0C8010E949C1EE816F90648F792
:103800000EEF1FEFCF3FDC07E9F2C6010E949C1EBE
:10381000C817D907B8F6C801CDB7DEB7EBE00C94EE
:103820001826B092BB009092BC000E94841E8C01AE
:103830008091BC0087FF0AC08091B900887F8831E1
:1038400011F08034A1F610E000E0E5CFC8010E943D
:103850009C1EE816F90660F7D3CF0F931F93CF9302
:10386000DF93EB018093BB0084E88093BC000E944F
:10387000841E8C018091BC0087FF11C02091B9008B
:10388000287F81E090E0283211F490E080E091956B
:1038900081959109DF91CF911F910F910895CF3FAD
:1038A000DC0741F3C8010E949C1EC817D90710F716
:1038B0008EEF9FEFEFCFB0E0A0E0E1E6FCE10C94EB
:1038C000FF256B018A017901B9010E94C11BE60144
:1038D0000C0D1D1DC017D10711F097FF08C024E97A
:1038E0002093BC00CDB7DEB7E8E00C941B26B701EF
:1038F00089910E942D1CEECFB0E0A0E0E2E8FCE14F
:103900000C94FF25C62F6A017901B8010E94C11BE2
:1039100097FD0CC0B8018C2F0E942D1CE601EC0C09
:10392000FD1CCE15DF0511F097FF08C024E9209398
:10393000BC00CDB7DEB7E8E00C941B26B801899136
:103940000E942D1CEECF84E98093BC0008959093D3
:103950008F0180938E0108959093700280936F027F
:103960000895E0916F02F0917002309729F0019074
:10397000F081E02D0995089580E00895E0916F02AF
:10398000F0917002309799F020911D01222359F097
:103990002091980227FF07C0DC012C9111962C93EF
:1039A000119726E02C930280F381E02D099508956C
:1039B000E0916F02F0917002309739F022E0DC0163
:1039C0002C930480F581E02D0995089520916D02D6
:1039D00030916E022817390771F090936E02809330
:1039E0006D02E0916F02F0917002309721F0068035
:1039F000F781E02D0995089520916B0230916C02BA
:103A00002817390771F090936C0280936B02E09154
:103A10006F02F0917002309721F00084F185E02D63
:103A200009950895FC01329680911D01882321F0AB
:103A3000809198029EE187FF96E080E0915008F423
:103A4000089521912223D1F38F5FF8CF662301F1EE
:103A500020911D012223F1F02091980227FF1AC026
:103A6000462F4695469546954E3190F4677021E075
:103A700030E002C0220F331F6A95E2F7840F911DD8
:103A8000FC01828190E02823392381E0232B69F413
:103A900080E00895FC01329608962191261721F0C6
:103AA000E817F907D1F7F4CF81E008959C01FC01F4
:103AB00032969FEF80E04191461751F09F3F19F4F5
:103AC000411101C0982F8F5F8630A9F79F3F09F4FD
:103AD0000895290F311D97FD3A95F90162830895E4
:103AE000FC01329608962191261303C0DF0111973D
:103AF0001C92E817F907B9F70895E62FE695E695C1
:103B0000E695EE3168F4E80FF92FF11D677021E0BA
:103B100030E001C0220F6A95EAF78281822B82830E
:103B20000895E62FE695E695E695EE3170F4E80FF8
:103B3000F92FF11D677021E030E001C0220F6A9576
:103B4000EAF72095828128232283089520911D0180
:103B5000222339F02091980227FF03C00E947D1D87
:103B600008950E94561D089520911D01222339F0C9
:103B70002091980227FF03C00E94911D08950E9482
:103B8000701D0895FC01329680911D01882351F02B
:103B90008091980287FF06C08EE1DF011D928A9511
:103BA000E9F7089586E0F9CF46E050E00E94352617
:103BB00021E0892B09F420E0822F089508950E94C6
:103BC000DE1D0895811106C081E0809371020E947C
:103BD000DF1D089582E0F9CF83E0809371020E9497
:103BE000DF1D08950E94E21D089581E08093710217
:103BF0000E94DF1D08950E94F51D089508950895FF
:103C00000E94FF1D0895089508950E94FE1D0895C5
:103C10000E94031E0E94B2120E94041E80E00E94B5
:103C20000C1291E0811107C081E00E940C1291E01A
:103C3000811101C090E0892F089585B7806885BF04
:103C400085B7806885BF08951F921FB61F92112403
:103C50008F939F93AF93BF9380917202811113C092
:103C60008091A4049091A504A091A604B091A7040A
:103C70004196A11DB11D8093A4049093A504A09327
:103C8000A604B093A704BF91AF919F918F911F900D
:103C90001FBE1F9018958091AC04843031F10E94B2
:103CA00076051092720288E190E020E40FB6F89455
:103CB000A895809360000FBE2093600083B7817F3A
:103CC000846083BF83B7816083BF7894889583B70E
:103CD0008E7F83BF0FB6F894A895809160008861AD
:103CE00080936000109260000FBE08950E94EF085C
:103CF0000E947D05089582E084BD93E095BD9AEF12
:103D000097BD80936E0008952FB7F8948091A40416
:103D10009091A504A091A604B091A7042FBF089587
:103D20002FB7F8946091A4047091A5048091A60423
:103D30009091A7042FBF08959C014FB7F8948091EC
:103D4000A4049091A504A091A604B091A7044FBF2C
:103D5000821B930B089578941F921FB61F92112413
:103D60008F939F93AF93BF938091A4049091A504E8
:103D7000A091A604B091A7040196A11DB11D809346
:103D8000A4049093A504A093A604B093A704BF91A4
:103D9000AF919F918F911F901FBE1F90189587E73D
:103DA00097E7909301088093000888E19AE00FB6A6
:103DB000F894A895809360000FBE90936000FFCFA9
:103DC00088E19AE00FB6F894A895809360000FBE42
:103DD00090936000FFCF80919602089508959C0112
:103DE00082E08093E9009FEF8091E800915085FD8B
:103DF00006C085ED8A95F1F700009111F5CF80910D
:103E0000E80085FF0CC050E040E066E070E0C901CA
:103E10000E9434218091E8008E778093E800089515
:103E2000CF93DF93EC0180911D018823B1F1809144
:103E3000980287FF32C060E282E08093E9008FEF52
:103E40009091E800815095FD06C095ED9A95F1F7A7
:103E500000008111F5CF8091E80085FF1BC08091A3
:103E60001D0170E050E040E0811104C050E040E0EE
:103E700068E070E0CE010E9434218091E8008E77E6
:103E80008093E80080E2FE01A6E7B2E001900D9287
:103E90008A95E1F7DF91CF91089568E081E0CDCF79
:103EA0008093730270937502609374028091AC04E6
:103EB000843001F582E08093E9008FEF9091E80073
:103EC000815095FD06C095ED9A95F1F7000081119E
:103ED000F5CF8091E80085FF0DC050E040E063E041
:103EE00070E083E792E00E9434218091E8008E77B1
:103EF0008093E8000895BC0184E00E94501F08955B
:103F0000BC0183E00E94501F08958091AB04811191
:103F100009C00E94C4220E9421238091E200846093
:103F20008093E20008951092AB0408950E94F51D5D
:103F300008956091A80481E0611101C080E00E94B1
:103F4000EC1D08959091AC0481E0943009F080E07C
:103F50006091A8040E94F21D089542E061EC81E0A6
:103F60000E94402242E261EC82E00E944022909155
:103F7000AC0481E0943009F080E06091A8040E94D4
:103F8000E21D08958091AE04833009F461C030F4DD
:103F90008130D1F1823009F49EC008958A3009F44D
:103FA0008AC08B3009F46FC0893009F050C080910D
:103FB000AD04813209F04BC08091B1049091B204FC
:103FC000029708F044C08091E800877F8093E80062
:103FD0008091E80082FF37C09091F3008091F20059
:103FE000029731F48091F100813011F0863021F494
:103FF0008091F100809396028091E8008B77809306
:10400000E8000E94742223C08091AD04813AF9F443
:104010008091E800877F8093E8008091B1049091BF
:10402000B204892B61F460E286E792E070E00E94BE
:1040300083218091E8008B778093E800089560E009
:1040400090E080E0F3CF8091AC048111C1CF08955E
:104050008091AD04813AD9F78091B1049091B20476
:10406000892BA9F78091E800877F8093E8008091F1
:10407000E80080FFFCCF80911D018093F1008091CA
:10408000E8008E77BCCF8091AD04813201F780913A
:10409000B1049091B204892BD1F68091E800877F1A
:1040A0008093E8000E9474228091AF0480931D01E8
:1040B0000E94EF0808958091AD04813241F680910D
:1040C000E800877F8093E8000E9474228091B0040A
:1040D0008093970208958091AD04813A09F0B7CF9B
:1040E0008091E800877F8093E8008091E80080FF5E
:1040F000FCCF80919702C1CF84B7877F84BF0FB672
:10410000F894A89580916000886180936000109277
:1041100060000FBE80E890E00FB6F89480936100D5
:10412000909361000FBE0E94FB1D08950E94C4225F
:104130000E942123E2EEF0E0808184608083789405
:104140000E94A025089581E191E00E94AC1C089591
:104150008091AC04853031F48091AC04853019F045
:104160000E94761E08950E944B1E8091AA04882307
:1041700099F30E94081E882379F30E941E210E9451
:10418000EF08EACF08950E94C6200895292F33270B
:104190002330310519F168F42130310509F444C0A8
:1041A0002230310509F445C090E080E030E020E0A5
:1041B00025C02132310549F122323105A9F780E4C9
:1041C00090E029E438E061157105C1F086EB90E0DC
:1041D00023E937E06130710589F0E6CF9927813016
:1041E000910581F0009729F00297F1F6ECE1F7E0F4
:1041F00002C0E2E4F7E0849190E09F01FA0131838C
:1042000020830895EEE2F7E0F6CF89E090E028E51C
:1042100037E06115710591F389E090E021E737E01F
:104220006130710559F3C0CF82E190E021E837E0B9
:10423000E5CF8BE390E026E437E0E0CF80E189BD75
:1042400082E189BD09B400FEFDCF8091D8008F7D49
:104250008093D8008091E00082608093E00080919C
:10426000E00081FDFCCF0895AF92BF92CF92DF9224
:10427000FF920F931F93CF93DF936C01EB018A01A1
:104280000E949322F82E811123C00115110539F0E7
:10429000F80180819181C81BD90BC80ED91EB12CA1
:1042A000A12C2097A9F08091E80085FD22C0809183
:1042B000E8008E778093E80001151105A1F0F80160
:1042C00080819181A80EB91EB182A08285E0F82E6E
:1042D0008F2DDF91CF911F910F91FF90DF90CF90A5
:1042E000BF90AF9008950E9493228823D1F2F82EB8
:1042F000EFCFF60181916F018093F1002197FFEFDD
:10430000AF1ABF0ACECFFC018091B3049091B404E0
:1043100086179707A0F06115710529F49091E800C0
:104320009E779093E80090E06115710551F491112A
:1043300008C08091E80082FF34C080E00895BC018D
:10434000F2CF8091AC048823C1F18530C1F1809116
:10435000E80083FD30C08091E80082FDEACF8091C3
:10436000E80080FFE1CF8091F3002091F200382F28
:104370006115710519F02830310558F091E02830A9
:10438000310509F090E02091E8002E772093E800B5
:10439000CBCF81918093F100615071092F5F3F4F26
:1043A000E7CF8091AC04882341F0853041F08091C3
:1043B000E80083FFBECF81E0089582E0089583E0A6
:1043C0000895FC018091B3049091B4048617970777
:1043D000A0F06115710529F48091E8008E77809333
:1043E000E80090E06115710551F4911108C08091C9
:1043F000E80082FF35C080E00895BC01F2CF8091D3
:10440000AC048823C9F18530C9F18091E80083FDAF
:1044100031C08091E80082FDEACF8091E80080FF02
:10442000E1CF8091F3002091F200382F61157105E2
:1044300019F02830310558F091E02830310509F0A5
:1044400090E08091E8008E778093E800CBCF849154
:104450008093F1003196615071092F5F3F4FE6CF95
:104460008091AC04882341F0853041F08091E800D0
:1044700083FFBDCF81E0089582E0089583E0089531
:10448000982F973028F08F708093E90081E008958D
:104490009093E900242F762F50E0981731F0709117
:1044A000EC002091ED005091F00021FD02C09F5FD3
:1044B000E8CF3091EB003E7F3093EB003091ED0080
:1044C0003D7F3093ED003091EB0031603093EB0095
:1044D0007093EC002093ED005093F0002091EE00DB
:1044E00027FDE5CF80E008958091AD0487FF13C0DC
:1044F0008091E80082FF06C08091E8008B7780936E
:10450000E80004C08091AC048111F2CF089580913D
:10451000AC048823D9F38091E80080FFF8CF809124
:10452000E8008E77ECCF2091E4003091E50095E62D
:10453000A9012091EC00822F817020FF06C080919C
:10454000E80080FF06C080E008952091E80022FD89
:104550001AC08091AC04882389F0853089F080915D
:10456000EB0085FD0FC02091E4003091E50042177B
:104570005307F9F29150E1F684E0089582E008953E
:1045800083E0089581E008950E9433230E943B2335
:10459000E0EEF0E0808181608083E8EDF0E08081F2
:1045A0008F77808319BCA7EDB0E08C918E7F8C93C0
:1045B00080818F7E80831092AB0408950F931F93A8
:1045C000CF93DF930E9433230E943B23C8EDD0E0BA
:1045D00088818F77888388818068888388818F7DB0
:1045E000888319BC1092AC041092A8041092AA04FB
:1045F0001092A90400EE10E0F80180818B7F808387
:1046000088818160888342E060E080E00E944022EF
:10461000E1EEF0E080818E7F8083E2EEF0E0808149
:1046200081608083808188608083F80180818E7FB3
:104630008083888180618883DF91CF911F910F9162
:104640000895E8EDF0E080818F7E8083E7EDF0E073
:1046500080818160808384E082BF81E08093AB04AD
:104660000E94DE220895E8EDF0E080818E7F808355
:104670001092E20008951092DA001092E10008957D
:104680001F920F920FB60F9211242F933F934F93C7
:104690005F936F937F938F939F93AF93BF93EF93AA
:1046A000FF938091E10082FF0BC08091E20082FFC6
:1046B00007C08091E1008B7F8093E1000E949F25DD
:1046C0008091DA0080FF19C08091D80080FF15C06A
:1046D0008091DA008E7F8093DA008091D90080FF8C
:1046E00096C080E189BD82E189BD09B400FEFDCF9D
:1046F00081E08093AC040E94851F8091E10080FFDF
:1047000019C08091E20080FF15C08091E2008E7F89
:104710008093E2008091E20080618093E2008091CA
:10472000D80080628093D80019BC85E08093AC04E7
:104730000E94991F8091E10084FF2BC08091E200CC
:1047400084FF27C080E189BD82E189BD89B5982FAA
:10475000917080FFFBCF8091D8008F7D8093D8002F
:104760008091E1008F7E8093E1008091E2008F7E56
:104770008093E2008091E20081608093E20080916A
:10478000A804882309F449C084E08093AC040E9403
:10479000A21F8091E10083FF29C08091E20083FF86
:1047A00025C08091E100877F8093E10082E08093C3
:1047B000AC041092A8048091E1008E7F8093E10008
:1047C0008091E2008E7F8093E2008091E200806120
:1047D0008093E20042E060E080E00E94402280910D
:1047E000F00088608093F0000E94961FFF91EF9187
:1047F000BF91AF919F918F917F916F915F914F91F9
:104800003F912F910F900FBE0F901F90189519BCDC
:104810001092AC040E94931F70CF8091E30087FD3B
:1048200093E09093AC04B3CF1F920F920FB60F9208
:1048300011242F933F934F935F936F937F938F93A5
:104840009F93AF93BF93CF93DF93EF93FF93D09159
:10485000E900DF708091EC00C82FC17080FDC0E8D6
:104860001092E9008091F000877F8093F0007894A7
:104870000E9458241092E9008091F0008860809393
:10488000F000CD2BCF70C093E900FF91EF91DF9145
:10489000CF91BF91AF919F918F917F916F915F91D8
:1048A0004F913F912F910F900FBE0F901F90189531
:1048B000AAE2B0E0EEE5F4E20C9404268DEA94E07E
:1048C0002091F100FC012193CF01F4E0853B9F078B
:1048D000B9F70E94C21F8091E80083FF1EC180913A
:1048E000AD049091AE049A3008F017C1E92FF0E0C2
:1048F000E556F94D0C94EF25803899F0823809F08F
:104900000CC18091B1048F70873008F006C180938C
:10491000E9008091EB0085FB882780F91092E9007F
:1049200006C08091A9049091AA049111826090918F
:10493000E800977F9093E8008093F1001092F100D7
:104940008091E8008E77E5C0882309F4D3C08230D7
:1049500009F0E3C08091AF048111D6C08091B10409
:104960008F702FEF280F263008F0D7C08093E90012
:104970002091EB0020FFC8C0933031F48091EB0010
:1049800080628093EB00C0C09091EB0090619093A7
:10499000EB0021E030E001C0220F8A95EAF7209376
:1049A000EA001092EA008091EB008860EACF811162
:1049B000B4C01091AF041F778091E3008078812B01
:1049C0008093E3008091E800877F8093E8000E9455
:1049D00074228091E80080FFFCCF8091E300806822
:1049E0008093E30082E0111183E08093AC0495C0D2
:1049F0008058823008F091C08091AF049091B0044B
:104A00008C3D23E09207A1F583E08A838AE28983C3
:104A10004FB7F894DE01139620E03EE051E2E32F19
:104A2000F0E050935700E49120FF03C0E295EF704F
:104A30003F5FEF708E2F90E0EA30C0F0C7968D9305
:104A40009D932F5F243159F74FBF8091E800877FF6
:104A50008093E8006AE270E0CE0101960E94832113
:104A60008091E8008B778093E80057C0C096E7CF2D
:104A70006091B1047091B204AE014F5F5F4F0E942C
:104A8000C320BC01892B09F448C09091E800977FAE
:104A90009093E80089819A810E94E121E1CF8038DA
:104AA000E1F58091E800877F8093E8008091A80479
:104AB0008093F10045CF811130C09091AF049230C6
:104AC00060F58091E800877F8093E8009093A804C8
:104AD0000E9474228091A804882311F084E005C00C
:104AE0008091E30087FDFACF81E08093AC040E94BF
:104AF000AD1F13C08091AF04813079F481E0933011
:104B000009F080E08093AA041092E9008091E80007
:104B1000877F8093E8000E9474228091E80083FFE1
:104B20000AC08091E800877F8093E8008091EB00C5
:104B300080628093EB00AA96E3E00C94202608950F
:104B4000CF938091AC048823A1F0C091E900CF708D
:104B50009091EC00892F817090FD80E8C82B109215
:104B6000E9008091E80083FD0E945824CF70C09333
:104B7000E900CF910895991B79E004C0991F961719
:104B800008F0961B881F7A95C9F780950895AA1B8F
:104B9000BB1B51E107C0AA1FBB1FA617B70710F028
:104BA000A61BB70B881F991F5A95A9F7809590955A
:104BB000BC01CD01089597FB072E16F4009407D091
:104BC00077FD09D00E94C72507FC05D03EF49095DB
:104BD00081959F4F0895709561957F4F0895EE0FD1
:104BE000FF1F0590F491E02D09942F923F924F9270
:104BF0005F926F927F928F929F92AF92BF92CF926D
:104C0000DF92EF92FF920F931F93CF93DF93CDB775
:104C1000DEB7CA1BDB0B0FB6F894DEBF0FBECDBFED
:104C200009942A88398848885F846E847D848C84BE
:104C30009B84AA84B984C884DF80EE80FD800C81C7
:104C40001B81AA81B981CE0FD11D0FB6F894DEBFAA
:104C50000FBECDBFED010895FB01DC0102C0059040
:104C60000D9241505040D8F70895FB01DC0104C07B
:104C70008D910190801921F441505040C8F7881B54
:104C8000990B0895FB01DC0102C001900D92415087
:104C90005040D8F70895F999FECF92BD81BDF89A9A
:104CA000992780B50895A8E1B0E042E050E00C9467
:104CB0007F26262FF999FECF92BD81BDF89A0197E4
:104CC00000B4021639F01FBA20BD0FB6F894FA9A54
:104CD000F99A0FBE08950396272F0E945A260E9424
:104CE0005926252F0E945A26242F0C945A260196C5
:104CF000272F0E945A260C945926DC01CB01FC0177
:104D0000F999FECF06C0F2BDE1BDF89A319600B424
:104D10000D9241505040B8F70895F894FFCFDA064D
:104D2000DA060B070B079807B4073A073A07BF07DD
:104D300030083F083F087C24A4248D25A4248D2519
:0A4D4000D724F8248D254F255B25AC
:104D4A00FB01280850011E0A14010021007F2200DD
:104D5A0003EB1E101FEF1E801F7B1FEE1E01E200D9
:104D6A00E900EA00B500B600B700CD008301CC0027
:104D7A008A019201940121022302240225022602B9
:104D8A0027022A02B300B4006F007000818283E216
:104D9A0000E900EA00B500B600B700CD008301CCF7
:104DAA00008A01920194012102230224022502268B
:104DBA000227022A02B300B4006F007000818283C6
:0E4DCA0034C69735360008101818100800007F
:00000001FF
