:100000000C9494030C94B1030C94B1030C94B103BD
:100010000C94B1030C94B1030C94B1030C94B10390
:100020000C94B1030C94B1030C9426220C94FA2284
:100030000C940A1D0C94B1030C94B1030C94B103FD
:100040000C94B1030C94B1030C94B1030C94B10360
:100050000C94B1030C94911D0C94B1030C94B10356
:100060000C94B1030C94B1030C94B1030C94B10340
:100070000C94B1030C94B1030C94B1030C94B10330
:100080000C94B1030C94B1030C94B1030C94B10320
:100090000C94B1030C94B1030C94B1030C94B10310
:1000A0000C94B1030C94B1030C94B1030102E371FD
:1000B0000103E3000102E201013D0103E20001024C
:1000C000E0760103E0000102E0630103E0000000CC
:1000D0000000000000000000000000000000000020
:1000E0000000000000000000000000000000000010
:1000F0000000000000000000000000000000000000
:1001000000000000000000000000000000000000EF
:100110008080804040202010080402040810102035
:10012000204040808000000000000000000000002F
:1001300000000000000000000000000000000000BF
:1001400000000000000000000000000000000000AF
:10015000000000000000000000000000000000009F
:10016000000000000000000000000000000000008F
:10017000000000000000000000000000000000007F
:10018000003FC10101020204844444428201010192
:10019000000000000000800000408080400000302F
:1001A0003000000000010204040808102040808094
:1001B000808040404040202020201010101008086F
:1001C0000808040404040202020201010101000003
:1001D000000000000000000000000000000000001F
:1001E000000000000000000000000000000000000F
:1001F00000000000000000000000000000000000FF
:10020000E018060100000C03000218190005FE802A
:100210008383404040402021212010101010080806
:1002200008080404040404083040808000000186AB
:1002300098600000000000000000000000000000C6
:1002400000000000000000000000000000000000AE
:10025000000000000000000000000000000000009E
:10026000000000000000000000000000000080808E
:100270008080404040402020202010101010080FA7
:100280000808040404040202020201010101000042
:10029000000000000000000000000000000000005E
:1002A00000060F0F07030361F0F8FC600101013C39
:1002B00078F8F0700000000000000000000000006E
:1002C000000000000000000000000000000000002E
:1002D000000000000000000000000000000000001E
:1002E000000000000000000000000000000000000E
:1002F00000000000000000000000000000000000FE
:1003000000000000000000000000000000000000ED
:100310008080804040202010080402040810102033
:10032000204040808000000000000000000000002D
:1003300000000000000000000000000000000000BD
:1003400000000000000000000000000000000000AD
:10035000000000000000000000000000000000009D
:10036000000000000000000000000000000000008D
:10037000000000000000000000000000000000007D
:10038000003FC10101020204040404020201010150
:10039000000000000000800000408080400000302D
:1003A0003000000000010264180412C2CA2488F060
:1003B000808040404040202020201010101008086D
:1003C0000808040404040202020201010101000001
:1003D000000000000000000000000000000000001D
:1003E000000000000000000000000000000000000D
:1003F00000000000000000000000000000000000FD
:10040000E01806010000000000000000000000806D
:100410008383404040402021212010101010080804
:1004200008080404040402020202010101010000A0
:1004300000000000000000000000000000000000BC
:1004400000000000000000000000000000000000AC
:10045000000000000000000000000000000000009C
:10046000000000000000000000000000000080808C
:100470008080404040402020202010101010080FA5
:10048000080804040404020408101020204040411D
:10049000422498C088888C9C1C1E0E060000000018
:1004A000000000000000000000000000000000004C
:1004B000000000000000000000000000000000003C
:1004C0000000000000000000000000000000B25D1D
:1004D000B45D0153B55DB65DB35DB25D52000153CD
:1004E000500051004F0000AE00AF00DA1281FFD97A
:1004F000F1DB20A4A62EAF00A0C000A1C800AED59D
:1005000080A83FD300408D142000000000000000B0
:1005100000002A2B2800000000000000000000005E
:10052000000000000029000000002C1E34202122C1
:1005300024342627252E362D3738271E1F2021222A
:10054000232425263333362E37381F0405060708A3
:10055000090A0B0C0D0E0F10111213141516171893
:10056000191A1B1C1D2F3130232D350405060708D1
:10057000090A0B0C0D0E0F10111213141516171873
:10058000191A1B1C1D2F3130354C000000000000D3
:10059000000000000000000000000000000000005B
:1005A00000000000000000000000000000007E0FBE
:1005B00000D4FFFFFFC700000078100334003100B3
:1005C00031007400650073007400000012035900CC
:1005D0007500730061006E00610067006900000033
:1005E0000403090409023B00020100A0FA09040007
:1005F000000103010100092111010001224000074F
:10060000058103080001090401000103000000093D
:10061000211101000122B60007058203200001120A
:1006200001000200000008EDFE04140001010200B8
:100630000105010902A10185020901A100050919AD
:100640000129081500250195087501810205010998
:100650003009311581257F95027508810609381505
:1006600081257F950175088106050C0A38021581E0
:10067000257F950175088106C0C005010980A1018B
:10068000850319012AB700150126B70095017510D9
:100690008100C0050C0901A101850419012AA002ED
:1006A000150126A002950175108100C005010906FB
:1006B000A1018506050719E029E715002501950820
:1006C000750181020507190029EF1500250195F034
:1006D0007501810205081901290595057501910229
:1006E000950175039101C005010906A101050719CE
:1006F000E029E7150025019508750181029501752E
:100700000881010507190029FF150026FF0095063D
:1007100075088100050819012905950575019102E3
:10072000950175039101C00011241FBECFEFDAE0DF
:10073000DEBFCDBF11E0A0E0B1E0ECEEFAE402C014
:1007400005900D92A639B107D9F726E0A6E9B1E0E8
:1007500001C01D92A83DB207E1F70E94B8120C94A7
:100760005E250C94000080919A01811108C060E020
:1007700072E08EEC90E00E94EB1580E0089560E05E
:1007800072E08EEC92E00E94EB1580919A0181114B
:10079000F4CFEDCF80919B01882371F08091980177
:1007A000909199010E94821D893E934028F082EE2B
:1007B0000E94C20510929B01089580919A0188239E
:1007C00019F010929A01089581E080939A0108959A
:1007D000FB01843B2DE5920719F158F4823B2DE58E
:1007E0009207A9F0833B9D4511F10E94DD0381E052
:1007F0000895853B2DE59207A9F1863B9D45A9F714
:100800008281882391F360E08CEA90E006C08281C7
:10081000882359F360E086EC90E00E945919E5CFF7
:100820008281882311F360E08EEB90E0F6CF828125
:100830008823A1F080919B01811106C081E0809303
:100840009B0182EE0E9476050E946A1D9093990199
:10085000809398018BE20E947605C7CF8BE20E94BD
:10086000C205C3CF8281882309F4BFCF60E084EB47
:1008700090E0D3CF81E008950E94E80308950895A1
:100880000E943F040895A5E0B0E0E9E4F4E00C9490
:10089000DE2449835A833091A10189819A813111E3
:1008A00019C0662399F0222389F00E94CC09182FE1
:1008B000682F89819A810E94A80969817A81812F94
:1008C0000E9447102596E3E00C94FA240E94BA098E
:1008D000182FF3CF0E94CC0969817A81F1CFFC01F6
:1008E000262F408151816281738184810E9443045B
:1008F000089581E00895CF93DF93EC0160E00E94BA
:100900006F04BE010E944004DF91CF9108950E94C0
:100910008A1108950E948D11089508950E94730808
:100920000E948D042FEF84E39CE021508040904092
:10093000E1F700C0000008950E948E040E94B51DDA
:1009400008950E948E040E94C61D08950F931F9360
:10095000CF93DF938C0161E00E946F04EC01B8013A
:100960000E943C04811106C080E0DF91CF911F916D
:100970000F910895B801CE010E944F1A8823A1F368
:10098000B801CE010E948E17882371F3B801CE0101
:100990000E94C119882341F3F8018281882361F004
:1009A000CB35FDE5DF0701F158F4C115ECE5DE07B5
:1009B00091F0CF3DDC4591F0C8010E943A04D5CFBB
:1009C000CD358DE5D80769F090F0C83ADD45A1F73F
:1009D0000E94A104C9CF0E949C04C6CF0E94860E2B
:1009E000F7CF0E94C40DE8CF0E94CE0DE5CF0E9444
:1009F000D20DE2CF0E94E61C0E9419050E94461704
:100A000008950E941D050E94EB1C089508950E9400
:100A10000605089581E008950E940A050895089545
:100A2000CF93C82F0E9407058C2F0E940C05CF91F1
:100A3000089580E00E94100508950E94971B0E946F
:100A400010050895CF930E94971BC82F80919C0199
:100A50008C1779F0C0939C010E94761D60939D01D4
:100A600070939E0180939F019093A0018C2F0E9410
:100A70001005CF910895ABE0B0E0E1E4F5E00C940F
:100A8000DF244F83588769877A878B8761110E949B
:100A90000F0D1E821D8285E0FE013796DE01119644
:100AA00001900D928A95E1F78C819D81892B61F4EB
:100AB00049815A816B817C818D819E810E94380C95
:100AC0002B96E2E00C94FB2489819A8189238F3F45
:100AD00079F3CE0101960E9479048111E9CFF0CF1C
:100AE000FC01808191810E94FE090895CF93C82F57
:100AF0008823B9F08CEF8C0F813AA8F46C2F809189
:100B00000001909101010E940C1C882329F08C2F78
:100B10000E94CF0C0E94300D8C2F0E94C70C0E94A7
:100B2000300DCF91089580E28C0F883048F4C77063
:100B300081E001C0880FCA95EAF70E94F20CEFCF5E
:100B4000EBE5EC0FE33040F4F0E0E45BFE4F808136
:100B500090E00E94CC1BE5CFE8E5EC0FE73150F4C4
:100B6000F0E0EE0FFF1FE25EFE4F808191810E9458
:100B7000E21BD7CFCD3EA8F28C2F0E943C130E94DF
:100B80000F14CFCF882379F19CEF980F913A28F476
:100B90000E94CF0C0E94300D089590E2980F98307B
:100BA00050F4877091E001C0990F8A95EAF7892F78
:100BB0000E94F80CEFCF9BE5980F933028F490E05B
:100BC00080E00E94CC1B089598E5980F973128F497
:100BD00090E080E00E94E21B08958D3E20F00E948C
:100BE00096130E940F1408951F93CF93DF93182F2D
:100BF000EB010E947605209739F4812F0E94C205EF
:100C0000DF91CF911F9108958FE99FE00197F1F750
:100C100000C000002197EFCF70E060E0893311F44D
:100C200060E570E00E94F4050895882321F00E9499
:100C3000F20C0E94300D0895882321F00E94F80CD8
:100C40000E94300D0895B0E0A0E0E9E2F6E00C94D7
:100C5000D8246C01D62FC72FFC011281F580F294A5
:100C60009FE0F9220E94E80CE82E8823B9F0E12EDB
:100C70001123A1F08C2F807F803421F080E28D0F32
:100C80008830D0F08091BC0282FF16C082E00E94C2
:100C9000930D0E94E80C91E0E82EE926BC2EB29458
:100CA0008FE0B822FBE0FB1508F468C0EB2DF0E004
:100CB000E05AFA4D0C94C924E12CF0CF0C2F0F70A0
:100CC000C07F11F00295007F112399F0002359F0A5
:100CD00080E28D0F883010F0D11107C0802F0E9464
:100CE000F20C0E94300D8D2F41C0802F0E94020D0A
:100CF000F8CF8D2F0E94C205002309F43FC080E287
:100D00008D0F883010F0D11104C0802F0E94F80C94
:100D100003C0802F0E94080D0E94300D2FC00C2FA1
:100D20000F70C07FC03211F00295007FDD2381F08B
:100D3000D13009F463C0112309F46DC0FF2009F418
:100D400063C0F601858180FFCECF8F7085835CC044
:100D50008091BC0282FD33C0112359F0002329F099
:100D6000802F0E94F20C0E94300D80E00E947605D8
:100D700005C080E00E94C2050111C7CFEB2DE850ED
:100D8000FF0B349720F40E94971B0E941005EE2061
:100D900089F00E94E40C80FD0DC0F60112820E94D1
:100DA000DE0C0E940609C6010E9433080E94DE0C78
:100DB0000E941609CDB7DEB7E9E00C94F4241123A4
:100DC00089F0F11006C00E94120D802B0E941506BA
:100DD000D5CF21E0F212F7CF0E94120D802B0E9496
:100DE000190DCCCFF11006C00E94260D802F0E9455
:100DF0001C06C4CF31E0F31609F2F6CF112331F00F
:100E000085E08F1508F4BACF802FE0CF94E09F15CE
:100E100008F4B4CFEBCFFF2049F3D93349F4FFEF07
:100E200027EE33E0F15020403040E1F700C00000F1
:100E30008D2F0E94C205A2CF8C2F86958695837038
:100E400069F0813009F09ACF8D2F9C2F937011118A
:100E500002C090E080E00E94E21B90CF8D2F9C2F7B
:100E60009370111102C090E080E00E94CC1B86CFED
:100E70008D2F112329F00E943C130E940F147ECF66
:100E80000E949613FACF8C2F8370A1F5111176CFA3
:100E90004D2F429546954770440F440F2D2F2F70CC
:100EA00030E0042E02C0220F331F0A94E2F790E0D4
:100EB00080E0D4FF09C08FE090E002C0880F991F46
:100EC0004A95E2F780959095C695C695C370822B9A
:100ED000932BC23049F058F4C13019F00E94D40865
:100EE0004DCF0E94CB084ACF0E94DD0847CF0E9419
:100EF000C80844CF8695112311F08C2F8170882368
:100F000009F43CCF4D2F429546954770440F440F4E
:100F10002D2F2F7030E0042E02C0220F331F0A94B1
:100F2000E2F790E080E0D4FF09C08FE090E002C0DB
:100F3000880F991F4A95E2F780959095C695C695BA
:100F4000C370822B932BC23049F058F4C13019F092
:100F50000E94410913CF0E94380910CF0E944A090C
:100F60000DCF0E94EC080ACFCF70112329F08C2FEF
:100F70000E9406098D2F2ACF8D2F0E941C068C2FD0
:100F80000E941609FBCED23F51F160F4D03FB9F078
:100F9000D13F81F0112309F449C0F110A4CE8C2F68
:100FA0008F7121C0D33F11F1D43FA1F78091BC02D2
:100FB00082FD26C08C2F8F71112311F314C01123D1
:100FC00049F084E08F1508F4D9CE8C2F8F710E94E0
:100FD0002809D4CE95E09F1508F4D0CEF6CF8C2FFB
:100FE0008F711111CDCF0E940609C8CE112329F0AF
:100FF0008C2F8F710E94FA08C1CE0E94F508BECED8
:10100000112349F0CF718C2F0E94060963E08C2FC9
:101010000E94750DB3CE81E00E94930DE1E0EF15C3
:1010200008F0ACCE82E00E94930DA8CEF110F5CE70
:101030008C2F8F71A5CF0F931F93CF93DF93EC016C
:10104000688179818A810E94090A8C010E94530972
:101050000E94C708B801CE010E942306DF91CF91FC
:101060001F910F910895CF93DF93EC018B819C81A9
:10107000892B29F08881998189238F3F51F4DF9151
:10108000CF910895CE010E941B08CE010E947B04DF
:10109000F6CFCE010E94A6048111F4CF0E94E80C85
:1010A000882369F38A81882351F38091BC0282FFEF
:1010B000E6CF82E00E94930DE2CF90E080E00E94B4
:1010C000CC1B90E080E00E94E21B0E940F0D0E946A
:1010D000300D0E942B140E940F1408950E94D70C0B
:1010E0000E945D0808950E94FF0C0E946E080895FA
:1010F00092959F70963091F058F4925F9F70923065
:1011000058F4803F19F030F4883E30F481E00895BF
:101110009A5FF4CF843FD1F380E00895883EB0F326
:10112000813FD1F7F3CFFC0183819481892B29F092
:101130008081918189238F3F11F480E0089580811F
:1011400091810E94FE090E9478080895A5E0B0E010
:10115000ECEAF8E00C94DF242596E2E00C94FB2402
:10116000A6E0B0E0E6EBF8E00C94DF242696E2E09F
:101170000C94FB2408950E94BA0808950E94BB08AD
:101180009093A9018093A8010E945D080895089595
:101190000E94BE0808952091A8013091A901822BD8
:1011A000932B0E94BE0808952091A8013091A901B7
:1011B000822393230E94BE0808952091A8013091B4
:1011C000A901822793270E94BE0808950E94BA08A9
:1011D00008950E94E60808950E94E9089093A701E7
:1011E0008093A6010E945D08089590E080E00E942F
:1011F000EC08089521E030E0A90102C0440F551F1A
:101200008A95E2F7CA010E94EC08089521E030E0D7
:1012100002C0220F331F8A95E2F78091A6019091B8
:10122000A701822B932B0E94EC08089521E030E067
:1012300002C0220F331F8A95E2F7209530958091E6
:10124000A6019091A701822393230E94EC080895A0
:1012500021E030E002C0220F331F8A95E2F780912F
:10126000A6019091A701822793270E94EC08089578
:101270002091A6013091A701822B932B0E94EC08AC
:1012800008952091A6013091A701822393230E9403
:10129000EC0808952091A6013091A7018227932799
:1012A0000E94EC0808950895262F277091E001C050
:1012B000990F2A95EAF723E0769567952A95E1F745
:1012C000660F771F660F771FFA01E60FF71F50E0D2
:1012D00040E0682F70E08191DF0111979B01042E9F
:1012E00002C0369527950A94E2F7217021952827A8
:1012F000292328272C934F5F5F4F4430510559F71E
:101300000895A82FA77023E0969587952A95E1F771
:10131000880F991F880F991FFB01E80FF91F50E0F4
:1013200040E080E0219130E00A2E02C036952795FA
:101330000A94E2F721703327042E01C0220F0A9489
:10134000EAF7822B4F5F5F4F4430510559F70895FC
:10135000262F923070F4833060F4682F70E083E0C1
:10136000989F600D711D112442EA51E0822F0E9466
:1013700054090895292F923068F4833058F490E08E
:1013800062EA71E033E0239F800D911D11240E94D9
:101390008109089580E00895B0E0A0E0E2EDF9E071
:1013A0000C94D8247C010091A6011091A701809192
:1013B000A8019091A901082B192BCFE0D0E0CC24F3
:1013C000C394D12CBC2EC6010C2E02C0880F991FCD
:1013D0000A94E2F780239123892B49F4219790F70F
:1013E000B12C8B2DCDB7DEB7E9E00C94F424B70116
:1013F0008C2F0E946210019789F3F3CFCF93DF9374
:10140000EC010E94CC09BE010E946210DF91CF91D5
:1014100008951F93CF93DF93EB019091A10199233E
:1014200039F0CB010E94FE09DF91CF911F91089501
:10143000882369F0CB010E94CC09182F682FCE01B8
:101440000E94A809BE01812F0E946210EDCFCB013E
:101450000E94BA09182FF6CF1F93CF93DF93C09144
:10146000AA0116E08091AB018C1304C0DF91CF91EB
:101470001F910895D0E01C9FF0011D9FF00D1124D5
:10148000E455FE4F40815181628173818481958151
:101490000E94B0082196C770E5CF4091DC015091C1
:1014A000DD016091DE017091DF018091E00190919A
:1014B000E1010E94B00808951F93CF93DF938091BC
:1014C000E101807F09F049C08091DE01882309F4A1
:1014D00044C08091AA01C091AB016091DC01709180
:1014E000DD01A091DF01B091E001D62FD72316E0F6
:1014F000C81799F190E0109711F0DF3F19F40196A9
:101500008770F6CF189F9001199F300D1124F901B3
:10151000E455FE4F41814713F2CF40814613EFCF90
:1015200042814111ECCF438154814A1B5B0B483C03
:10153000510528F78091E1018F7080618093E1016E
:10154000F901EF54FE4F80818F70806180838CEDB4
:1015500091E00E9433080E942C0ADF91CF911F91E5
:101560000895A1E1B0E0E7EBFAE00C94D7248C01F8
:1015700085E0F801DE011D9601900D928A95E1F754
:10158000F801E2808CEDC82E81E0D82E6091DF0159
:101590007091E0016115710509F44EC19091DC0173
:1015A0002091DD01892F82238F3F09F445C14081BD
:1015B0005181A380B480F090DE01F501E61BF70BAA
:1015C000FF2009F4EAC08091E101382F307FE83C28
:1015D000F10508F0A3C031116DC0FE2C251316C013
:1015E000941314C0E11012C08F7080618093E101E8
:1015F0000E944D0AC6010E9433088091E101F80162
:1016000085838F2D6196EAE00C94F324A114B10434
:1016100029F0842F85238F3F09F027C180E0F82F20
:10162000F170DF2E80FF3CC08091AA012091AB01B8
:1016300036E0821315C04D875E878D859E850E949A
:10164000FE09292F22952F702230F0F0243018F552
:101650009F70F1F0F8019581907FD1F4D12C1EC0DC
:1016600090E0389FF001399FF00D1124E455FE4FB2
:101670006181651306C06081641303C06281E61254
:101680000FC001968770D5CF9F7011F0882331F37A
:10169000805E883018F3C8010E943308FD2CB1CF5A
:1016A000EE2009F4AECF8091E10181608093E101E9
:1016B000F12CA7CF251306C0941304C0F801EE2027
:1016C00009F487C0C8010E949308882319F1EE200D
:1016D00009F18091E101803270F02091DC013091BC
:1016E000DD0138872F831986BB86AA868C87CE01B9
:1016F00007960E94330886E0F801ACEDB1E0019056
:101700000D928A95E1F70E945C0A0E944D0AFF241F
:10171000F39477CFC8010E943308F9CF311113C079
:101720007A2DB98AA88A6E2D89890E94A6088CED27
:1017300091E00E94330886E0F60111928A95E9F75C
:101740000E944D0AB5CF25130FC094130DC0E110B0
:101750000BC0F8018583C8010E94330886E0F601BA
:1017600011928A95E9F74DCFC8010E94930888230A
:1017700089F2EE2079F28091E101803208F4BBCF4A
:101780002091DC013091DD013A8329831B82BD82E7
:10179000AC828E83CE010196ACCFE83CF10508F017
:1017A0003EC0FE2CEE2009F4B5CF25132AC09413B9
:1017B00028C08091E10180FD1BC0982F907FC1F06F
:1017C000F8018583903F31F0982F907F905F8F7064
:1017D000892B8583C8010E94330886E0F801ACEDAF
:1017E000B1E001900D928A95E1F70E944D0A09CF70
:1017F00086E0F801ACEDB1E001900D928A95E1F739
:1018000000CFC8010E949308811175CF8091E1013A
:1018100081608093E101C8010E943308F2CE7A2DE5
:10182000B98AA88A6E2D89890E94A60886E0F601E9
:1018300011928A95E9F7D9CFEE2009F46BCFC80150
:101840000E949308F82E882309F464CF86E0F801FB
:10185000ACEDB1E001900D928A95E1F78CED91E04D
:101860000E9470050E945C0AC0CF81E08E25D7CE11
:10187000ACE0B0E0EEE3FCE00C94DE244F8358874C
:1018800069877A878B879C87CE0107960E94B10A69
:10189000882369F08A859B85892B39F04F8158858B
:1018A000842F85238F3F09F06BC016E05FC086E070
:1018B000FE013796DE01119601900D928A95E1F7AF
:1018C0008A859B85892B89F38F81988589238F3F12
:1018D00061F32091AB0130E0C9010196877099272F
:1018E0004091AA014817190671F40E9473081092DA
:1018F000AB011092AA0186E0ECEDF1E0DF011D9250
:101900008A95E9F7D2CF96E0929FD001939FB00DD0
:101910001124A455BE4FFE01319601900D929A9567
:10192000E1F78093AB010E942C0ABFCF819FC001D9
:10193000112484559E4F0E94B10A8823E9F0E0915A
:10194000AA011E9FF0011124E455FE4F40815181F0
:1019500062817381848195810E94B0088091AA017F
:1019600090E00196877099278093AA018091AA013F
:101970009091AB018913DACF2C96E3E00C94FA2412
:1019800069857A858B859C850E94B0088ECF682FEB
:1019900080910001909101010E948C1C0895682F94
:1019A00080910001909101010E949A1C08958091FC
:1019B0000001909101010E94A81C089580910202EB
:1019C0008595859585950895809102028770089583
:1019D00090910202977081E009F480E0089580916F
:1019E0002502089590912502892B80932502089560
:1019F0008095909125029823909325020895109246
:101A00002502089590912402892B80932402089541
:101A10008095909124029823909324020895109227
:101A20002402089580910302089508950E94150DDF
:101A300008959091BC0292FF08C0909103029817FC
:101A400021F0809303020E94160D089580910302F5
:101A5000882329F01092030280E00E94160D089559
:101A6000CF93DF93E0910001F09101018091250275
:101A70008083E0910001F091010180819091240226
:101A8000892B808390910302992381F0E0910001DA
:101A9000F09101018081892B8083809100019091D8
:101AA00001010E94F81B81110E94260DC0910001C6
:101AB000D091010140E250E062EE71E0CE010E945F
:101AC0000625892B59F080E2FE01A2EEB1E00190DB
:101AD0000D928A95E1F7CE010E94A41BDF91CF9170
:101AE000089508950E94710D08959091BC0292FF8F
:101AF00011C098E0899F90011124622B609302022B
:101B00000E940609809102028595859585950E941F
:101B1000720D08950E94060908951092020280E055
:101B20000E94720D089590910202809589238093FE
:101B30000202282F277091F4282F082E000C330B57
:101B40009217130659F09091BC0292FF07C0859539
:101B5000859585950E9416090E948D0D0895909196
:101B6000BC0292FB222720F9281769F080FB92F92A
:101B70009093BC028091BB029091BC020E94000E27
:101B800082E00E94930D08958091BC0282FB882719
:101B900080F991E089270E94AF0D089581E00E94AD
:101BA000AF0D089580E00E94AF0D08956FEF7FEFB5
:101BB00090E080E00E944825089590E080E00E9437
:101BC000242521E0883E9E4F09F020E0822F0895D1
:101BD00082E090E00E941C25089583E090E00E943E
:101BE0001C250895CF9384E090E00E941C25C82F07
:101BF00082E290E00E941C25982F8C2FCF910895AF
:101C0000CF93C92F682F84E090E00E942A256C2F83
:101C100082E290E00E942A25CF910895AB01BC0199
:101C20008FE090E00E943C250895AB01BC0183E168
:101C300090E00E943C25089560E070E0CB010E9496
:101C4000150E089560E070E0CB010E940E0E0E9418
:101C50001C0E089568EE7EEF90E080E00E9448251B
:101C600060E082E090E00E942A2560E083E090E05E
:101C70000E942A251092A9011092A80160E084E038
:101C800090E00E942A2564E082E290E00E942A25EA
:101C900060E085E090E00E942A2560E086E090E028
:101CA0000E942A256FEF87E090E00E942A2540E0FD
:101CB00050E0BA0188E090E00E943C2560E08DE0B1
:101CC00090E00E942A2540E050E0BA0188E190E0CF
:101CD0000E943C2560E087E190E00E942A2540E0D8
:101CE00050E0BA018CE190E00E943C2570E060E099
:101CF00080E290E00E94482540E050E0BA0188E18F
:101D000090E00E943C250E94220E08950E942A0E17
:101D10000895682F8EE090E00E942A2508950E9481
:101D2000761D60932E0270932F0280933002909361
:101D3000310260932A0270932B0280932C029093BD
:101D40002D020895089508950E94A30E0895089500
:101D50000E94A70E08958CE491E10E948D1B0E94C1
:101D6000A20E0E94A40E089581E008950E94B40E70
:101D70000895089508950E94B90E0E94BA0E08951C
:101D80000E946B110E940F0508950E94611D0E9420
:101D900026120E94C00E80E00E948C150E94A80EA0
:101DA0000895AAE0B0E0E7EDFEE00C94D7240E948D
:101DB00036121091280280E00E94901118132FC053
:101DC0001091290281E00E949011181328C00E94EE
:101DD0006A1D8C018091260290912702081719072D
:101DE000A1F08FEF89838A831B820E946A1D816024
:101DF000782F9D838C8349815A816B818D810E94CC
:101E00003B0510932702009326020E9464170E944C
:101E10004D140E9422052A96EAE00C94F324809146
:101E2000320281FD0E9496110E94B60EC82E88E2F1
:101E3000A82E82E0B82E10E0812F0E949011082F6A
:101E4000F50181915F01081731F1D02ED826F12CD0
:101E5000EE24E3948E2D8D21B1F0CC20A1F0FE82F2
:101E60001F8391E08E2D802309F490E098870E94D3
:101E70006A1D8160782F9A8789874E815F81688586
:101E80008A850E943B05F394EE0CF3E0FF12E2CF4B
:101E9000F50131970083113039F40E948F0E0E94B2
:101EA00064170E942B16B3CF11E0C6CFCF93DF93F8
:101EB0000E946710EC01811521E5920708F042C0ED
:101EC000811530E5930708F09FC0883E910530F5F5
:101ED000803E910508F094C0883A910588F4853ACF
:101EE000910508F086C08130910509F489C00097FA
:101EF00009F486C0049708F083C0D0E0C0E080C039
:101F00008F3B9105D0F7C85AD0E0CC0FDD1FC15BE5
:101F1000DE4F0990D881C02DD46472C0811540E293
:101F2000940750F4C11581E0D80708F069C0CD3E90
:101F3000D10518F3D06564C081159044F0F2DF70CC
:101F4000D06A5EC0811535E5930718F5811544E523
:101F5000940708F085C0C11583E5D80708F06CC068
:101F6000C11522E5D20708F462C0CE01837099271B
:101F700021E030E002C0220F331F8A95E2F7C695B8
:101F8000C69580E2C89FE0011124C22BD32BDC68E8
:101F900037C0811539E59307A8F4811548E5940702
:101FA00008F063C0C11586E5D80708F0A6CF8C2FCE
:101FB0000E940911C82FD0E0DC2FCC27CC27DF717D
:101FC000D0621EC081152AE5920708F453C09056CE
:101FD0008115904208F091CF8D2F8F710E940911C9
:101FE00090E0982F882788279F719C012C2BE9016E
:101FF000E7CFC55AD0E0C358DE4FC881D0E0D064E7
:10200000CE01DF91CF9108958370992721E030E0D0
:1020100002C0220F331F8A95E2F7C695C69540E2AB
:10202000C49FE0011124C22BD32BDD68E9CFDC2F44
:10203000CC27C16FD06AE4CFCE018370992721E00D
:1020400030E002C0220F331F8A95E2F7C695C6958D
:1020500040E2C49FE0011124C22BD32BDA68D0CF19
:10206000D82FCC27C46FD06ACBCFD82FCC27C06F46
:10207000D06AC6CF8F700E94091134E0D695C795FB
:102080003A95E1F7CF709C2FEC01D069B9CF972F2B
:102090007230A8F4633098F470E023E0929F600DF2
:1020A000711D1124FB0196E0899FE00DF11D1124A3
:1020B000EE0FFF1FE253FB4F85919491089580E04E
:1020C00090E008950E9447100E94560F08958238AC
:1020D0009105B9F1B0F48133910509F47DC048F45C
:1020E0008932910509F46DC08A32910509F47BC0EB
:1020F00008958533910509F45FC08933910509F18D
:102100000895833E9105D9F138F4803E910529F177
:10211000823E910579F10895863E9105D9F1873E79
:10212000910509F43EC0843E910541F52091BC0221
:1021300021FF24C08091BB0284FD19C087EE90E08E
:1021400008952091BB02237009F05AC02091BC026F
:1021500023FF14C089E290E008952091BB0220FD86
:1021600038C03091BC0230FF09C024FF43C090E06A
:1021700080E008952091BB0222FDF7CF08952091C1
:10218000BB0222FD3AC03091BC0230FD39C024FFB1
:10219000F5CFEDCF2091BB0223FFF0CF24FDE7CF99
:1021A000CDCF2091BB0223FD2EC03091BC0231FF68
:1021B000EECF84EE90E008952091BB0225FFDECFA4
:1021C000C9CF2091BB0225FD21C02091BC0223FF75
:1021D000D5CF89E390E0D2CF2091BB0226FFCECFAE
:1021E0008AE290E008952091BB0226FFC7CF81E3E9
:1021F00090E0089583EE90E0089582EE90E00895D7
:1022000080EE90E0089586EE90E0089585E390E0FA
:1022100008959091BB0292FF06C0282F28712830A4
:10222000F9F4877F846093FF06C0282F2871283136
:10223000F1F4877E84612091BC0220FF06C0382F14
:1022400038713830D9F4877F816021FF06C0282F8C
:1022500028712831D1F4877E816194FD877E0895AD
:10226000282F24712430F9F68B7F8860DCCF282F4B
:102270002471243101F78B7E8861DDCF382F3171D5
:10228000313019F78E7F8860E0CF282F21712131FE
:1022900021F78E7E8861E1CF80E008950E94D60DFF
:1022A00008950E9436122FEF86E791E0215080407A
:1022B0009040E1F700C000000E94361280E00E94CA
:1022C000901180FF04C00E944E110E94B51D089518
:1022D0000E94511108950E94DD0D811102C00E94DB
:1022E000860E0E94E80D809332020E94F20D9093B8
:1022F000BC028093BB020E9468110E94ED0D90E029
:102300000E94C8088091A6019091A7010E94E90847
:10231000089508950E94891108950E94CA0308959E
:10232000E82FF0E0E154FD4F80810895089580EAA0
:102330008A95F1F7089500C008950E9497110895B5
:10234000F894E82FE295EF70F0E031A1282F2F707C
:1023500081E090E001C0880F2A95EAF7982F9095C8
:10236000932391A392A1892B82A37894089585E366
:102370000E94A01186E30E94A01184E30E94A01194
:1023800086EC0E94A01187E90E94A0110895B0E098
:10239000A0E0EDECF1E10C94D924EC01D62E062F4F
:1023A00010E0C8018D579E4F7C01FC0180818F3F5A
:1023B00009F445C0F894E82FE295EF70F0E091A1A0
:1023C0008F7021E030E001C0220F8A95EAF7892F53
:1023D000822B81A382A12095282322A378940E9496
:1023E0009B11E0E8F1E043E851E031E0C12C21919C
:1023F0002F3F51F1A22FA295AF70B0E090968C9133
:1024000090E02F7002C0959587952A95E2F780FDA0
:102410001BC0832FC82A330F4E175F0741F7F70100
:1024200080818F3F11F00E94A01161E0C11001C0B6
:1024300060E08D2D0E949D11C00FD11FC882CDB7C5
:10244000DEB7E8E00C94F52480E0E4CF0E94B711F9
:102450001092C0021092BF021092BE021092BD02F2
:1024600082E00E946C120E9487040895A2E0B0E00E
:10247000ECE3F2E10C94DE241A82198260E0CE01D2
:1024800001960E94C71161E0CE0101960E94C7111A
:1024900042E050E0BE016F5F7F4F8DEB92E00E9403
:1024A000062521E0009709F420E0892B31F089818D
:1024B0009A819093BE028093BD0242E06FEB72E07E
:1024C0008DEB92E00E946D12182F0E948A04812FDA
:1024D0002296E3E00C94FA240895CF92DF92EF92D3
:1024E000FF920F931F93CF936C017B01042F222344
:1024F00049F081E0809335020E946A1D9093340276
:1025000080933302C0913502C1110AC0C0E08C2F04
:10251000CF911F910F91FF90EF90DF90CF90089592
:1025200080913302909134020E94821D059770F3CE
:1025300010E0A801B601C7010E940625892B41F0D1
:10254000A801B601C7010E94132510923502DFCF02
:10255000C0E0FBCF0E947C1F0E94C50E0E94891F15
:1025600008950E948E1F0E94D10E0E94A81F0895F8
:102570000E94031D0E94621F0E94AB0E0E94AA12BD
:102580000E94B1120E94BB0EFBCF80913C0280FFE3
:102590000DC06091070170E0660F771F603871050C
:1025A00070F56115710569F1862F089581FF07C0E7
:1025B0006091070184E0689FB0011124EFCF609122
:1025C000070182FD0AC080913B028823A9F0209177
:1025D000060160910701821710F088E0ECCF869F1A
:1025E000C001112433E0880F991F3A95E1F7622F5B
:1025F00070E00E94B524D2CF68E070E0D5CF8FE7BD
:10260000089581E0089580913C0280FF0CC06091A4
:10261000030170E07595679575956795611571056E
:1026200049F1862F089581FF06C06091030170E093
:1026300075956795F3CF6091030182FD0BC0909172
:102640003A029923A1F0609102018091030196174B
:1026500038F0682F70E06038710500F38FE7089557
:10266000899FC001112470E00E94B524F4CF61E07D
:1026700070E0D7CF81E008958D3E31F40E94C512FD
:1026800081958093400208958E3E19F40E94C512F0
:10269000F8CF8F3E31F40E94C512819580933F029E
:1026A0000895803F19F40E94C512F8CF893F29F49C
:1026B0000E9403138093410208958A3F21F40E94EF
:1026C00003138195F7CF8B3F31F40E94031381955B
:1026D0008093420208958C3F19F40E940313F8CFAF
:1026E0009FE0980F983070F4815F990B21E030E003
:1026F00001C0220F8A95EAF780913E02822B8093D7
:102700003E0208958D3F31F480913C0281608093B8
:102710003C0208958E3F21F480913C028260F7CF05
:102720008F3FB9F780913C028460F1CF40913F0226
:102730008D3E59F48091400287FF0DC010924002F7
:1027400041110BC010923B0208C08E3E81F4809173
:10275000400218169CF3442381F08091410290912D
:102760004202892B09F05AC010923A0208958F3E16
:1027700049F447FFF0CF10923F028091400281114F
:10278000ECCFE0CF803F19F41416ACF3E4CF909176
:102790004102893F29F41916F4F610924102DBCF69
:1027A0008A3F19F497FFD7CFF8CF909142028B3F21
:1027B00029F497FFD0CF10924202CDCF8C3F19F46D
:1027C0001916CCF3C8CF9FE0980F983090F4815F32
:1027D000990B21E030E0B90102C0660F771F8A959E
:1027E000E2F7CB01809590913E02892380933E02CF
:1027F000B2CF8D3F31F480913C028E7F80933C02BA
:10280000AACF8E3F21F480913C028D7FF7CF8F3F7E
:1028100009F0A1CF80913C028B7FF0CF08950E94F8
:102820006A1D9C0190913F0280914002982B21F0FB
:1028300030933902209338029091410280914202F4
:10284000982B21F030933702209336028DE392E0EB
:102850000E94BE1B089586E0EDE3F2E0DF011D92C9
:102860008A95E9F710923B0210923A0210923C02CC
:102870000895FC01828181110EC0838181110BC0FA
:102880008481811108C091E08581811101C090E0AF
:10289000892F8170089581E0FCCFA6E0B0E0E3E5E8
:1028A000F4E10C94DE2486E0EDE3F2E0DE01119623
:1028B00001900D928A95E1F710923F02109240022A
:1028C00010924102109242028B819C81892B89F0E7
:1028D00080913802909139020E94821DAC01909142
:1028E0003B029923C9F1809108018417150608F469
:1028F00040C08D819E81892B91F08091360290910C
:1029000037020E94821DAC0190913A02992309F48A
:1029100071C0809104018417150608F479C0BE01C6
:102920006F5F7F4F8DE392E00E94BA1C811105C05A
:102930008DE392E00E94391481110E940F1486E009
:10294000FE013196ADE3B2E001900D928A95E1F778
:102950002696E3E00C94FA24209109018AE0289F4E
:10296000900111242417350720F69F5F90933B02B6
:1029700002C09F3FD1F71B81112359F00E94C5125D
:102980009FEF11160CF491E0899F802D1124809304
:102990003F021C81112359F00E94C5129FEF1116AE
:1029A0000CF491E0899F802D112480934002309196
:1029B0003F02332309F49DCF20914002222309F4E2
:1029C00098CF45EB3403C0011124992359F090931B
:1029D0003F0245EB240390011124332339F0309357
:1029E000400287CF81E080933F02F3CF81E0809364
:1029F00040027FCF209105018AE0289F9001112499
:102A00002417350708F08BCF9F5F90933A0202C0DE
:102A10009F3FD1F71D81112359F00E9403139FEFAF
:102A200011160CF491E0899F802D112480934102AE
:102A30001E81112359F00E9403139FEF11160CF40D
:102A400091E0899F802D11248093420230914102B0
:102A5000332309F464CF20914202222309F45FCF8B
:102A600045EB3403C0011124992359F0909341029E
:102A700045EB240390011124332339F030934202B3
:102A80004ECF81E080934102F3CF81E080934202F8
:102A900046CFB0E0A0E0EFE4F5E10C94D9246C015E
:102AA0007B0164E670E088E70E94A71AEC0197FDBD
:102AB00012C010E000E0F601E00FF11F849164E61F
:102AC00070E00E94131BEC01892B29F40F5F1F4F4C
:102AD0000E151F0581F70E94891BCE01CDB7DEB709
:102AE000E8E00C94F52408950E9473150895E1EC34
:102AF000F2E080E094E0DF019C011D922150304023
:102B0000E1F7F093C606E093C5068FEF9FEF909331
:102B100089028093880208950E9473150E9474159B
:102B20008093840280FD0FC080E8809383020E941E
:102B3000A11A6DE070E08DEF94E00E944915892B99
:102B400021F080E0089580E4F0CF8091840263E07A
:102B500070E081FD26C08AEF94E00E944915892B20
:102B600081F76DE070E08AEE94E00E944915892BB0
:102B700041F70E94761D605A75418F4F9F4F6093B9
:102B8000C1067093C2068093C3069093C4060E9448
:102B9000771581E0809387028093860210928502E8
:102BA000089587EF94E0D9CF2091830236E0839F88
:102BB000C0011124629F800D911D1124811524E014
:102BC000920714F090E080E08F539D4F9093C606DB
:102BD0008093C5060895CF93DF932091C506309169
:102BE000C606215C3240A901460F571F41305440B0
:102BF00020F060E074E0621B730B409188025091FA
:102C00008902FC01C901620F731FC1E0D0E0861781
:102C1000970738F05093890240938802DF91CF9153
:102C200008952491DC01AF53BD4F3C91321781F0E0
:102C30002C939C01A6E036952795AA95E1F7DE0135
:102C400002C0AA0FBB1F2A95E2F79D014A2B532B06
:102C500001963196DCCF80918702811103C080916B
:102C6000860208950E94761D605A75418F4F9F4FCE
:102C70006093C1067093C2068093C3069093C40606
:102C8000809186028111EBCF62E070E088EE94E0E3
:102C90000E944915892B19F781E080938602DFCFC6
:102CA0002F923F925F926F927F928F929F92AF92FC
:102CB000BF92CF92DF92EF92FF920F931F93CF9329
:102CC000DF9380918702882369F0209188023091F8
:102CD00089022115310531F08091850261E070E0B3
:102CE000882399F0DF91CF911F910F91FF90EF9082
:102CF000DF90CF90BF90AF909F908F907F906F901C
:102D00005F903F902F9008958F5F082F10E01B0178
:102D1000082E02C0220C331C0A94E2F7A9014221BA
:102D20005321452B89F39091840290FD43C08295F5
:102D3000880F880F807480930C0198013695279531
:102D400020930F01815C80930D011092100124E605
:102D500030E047E050E06AE071E088E70E94411B04
:102D6000892B09F0BFCFA80126E0440F551F2A95F3
:102D7000E1F78091840280FD2BC04F535D4F04E644
:102D800010E020E430E060E488E70E94621B892BB9
:102D900009F0A8CF0E942B16E101C095D095809133
:102DA000880290918902C823D923D0938902C093C5
:102DB000880298CF880F880F880F80930C0110929B
:102DC0000F01895F80930D0187E080931001BFCFD1
:102DD000E3E4F2E080E4DF011D928A95E9F7ADE8D3
:102DE000B1E005E811E085E9C82E81E0D82E97E032
:102DF000592E772473948D91E80129918E01240F27
:102E0000352F311D2F533D4FE82FF0E0ED5BFD4F87
:102E100090E080E0652C681A872C082E01C0880C91
:102E20000A94EAF77901A12CE701B9907E01B82054
:102E3000662D6A196770962E062E000C770BDB2D17
:102E400001C0DD0F9A94EAF7719561957109677079
:102E5000772701C0B6946A95EAF7BD2A6081962E5D
:102E60009B289082A39468E0A612DECF019631964B
:102E70008830910579F6CA16DB0609F0BCCF04E666
:102E800010E020E430E043E452E07DCF8091860200
:102E900090918702911103C091E0892708958823BA
:102EA00069F062E070E086EE94E00E944915892B9B
:102EB00019F0809186020895109286028091860210
:102EC000EBCF0E94B30308950F931F938091870265
:102ED000882309F160E080E00E94D4150E94611708
:102EE0000E945016809186028823A9F00E94761DC8
:102EF0000091C1061091C2062091C3063091C4060C
:102F0000601B710B820B930B6F3F7F4F8F4F9F475F
:102F100010F40E9446171F910F910895CF93DF93ED
:102F2000EC01FB018281882309F464C1C430FDE512
:102F3000DF07E0F5CB3F9CE5D90730F49E01225036
:102F40003C4524313105D8F50E94F20D9093BC0226
:102F50008093BB02C231ECE5DE0709F41FC108F023
:102F60006EC0C9308CE5D80709F4F2C008F03FC044
:102F7000C530ECE5DE0709F4DBC058F5C3308CE55D
:102F8000D80709F4CDC008F0CFC08091BB028160A2
:102F9000C230DC4509F4AEC08091BB029091BC0206
:102FA0000E94000E0E94730880E009C0C63AEDE559
:102FB000DE0751F238F4C2369DE5D90729F2DF91D8
:102FC000CF9108959E012E5A3D4523303105B8F723
:102FD000BBCF8091BB028062C730FCE5DF0709F4FC
:102FE00089C008F4B1C08091BB02806483C0CD3039
:102FF0009CE5D90709F4BAC070F48091BB028E7FBA
:10300000CB30FCE5DF0709F475C008F4A7C0809158
:10301000BB028D7F6FC0CF309CE5D90709F4B6C0E5
:1030200008F4A8C0C031FCE5DF0709F4B3C0C13122
:10303000DC4509F0B1CF8091BB028F7B5BC0C1152D
:103040009DE5D90709F4B4C098F5CB3FFCE5DF074F
:1030500009F472C0B8F4C4319CE5D90709F4B6C0CC
:1030600008F4A2C0C531DC4509F096CF8091BB02BF
:1030700082FB992790F921E0922790FB82F990FB3F
:1030800083F938C0CD3F8CE5D80709F477C008F440
:1030900057C0CE3FECE5DE0709F474C08091BC0256
:1030A0008360CF3FDC4509F077CF8093BC0274CFBB
:1030B000C2368DE5D80709F496C068F4C230EDE554
:1030C000DE0709F48CC008F477C0C330DD4509F091
:1030D00063CF80E085C0CE3A9DE5D907E9F068F47A
:1030E0009091BB02892F8E7F90FF8160C63ADD45AB
:1030F00009F052CF8093BB024FCFCF3A8DE5D8076E
:1031000089F1C03BDD4509F047CF9091BC02892F82
:10311000877F93FF8860C9CF8091BC028860C5CF4C
:103120008091BB028260E6CF8091BB028460E2CFD7
:103130008091BB028860DECF8091BC028160B5CFF8
:103140008091BC028260B1CF8091BB028061D2CFFE
:103150000E9473088091BB028068CCCF8091BB0233
:103160008C60C8CF8091BC02877F9FCF8091BB02CB
:103170008B7FC0CF8091BB02877FBCCF8091BC0288
:103180008E7F93CF8091BC028D7F8FCF8091BB02C9
:103190008F7EB0CF8091BB028F7DACCF0E94730831
:1031A0008091BB028F77A6CF8091BB02837FA2CF95
:1031B0008091BC028C7F79CF8091BC02982F909532
:1031C00091708E7F892B90FB81F96FCF0E947308DD
:1031D0009091BB02892F97FB87F980588BCF81E0B4
:1031E0000E94890ED9CE9091BB02892F8F7E94FFC9
:1031F000806180CF81E0E3CEB0E0A0E0E2E0F9E1E1
:103200000C94DA24E82FF0E0E65FFA4FD490282FF0
:1032100026952695269530E0F901E655FA4F04915A
:10322000877010E0082E02C0159507950A94E2F702
:1032300001701127F901E656FA4FE490F12C082E9F
:1032400002C0F594E7940A94E2F791E0E922FF24A2
:10325000F901E657FA4FC491D0E002C0D595C79561
:103260008A95E2F7C170DD270115110519F081EE8D
:103270000E947605E114F10419F086EE0E947605AD
:103280008D2D0E940C06E114F10419F086EE0E94C7
:10329000C2050115110519F081EE0E94C205CD2B62
:1032A00019F08CE20E940C06CDB7DEB7E7E00C9473
:1032B000F624EF92FF920F931F93CF93DF938C012D
:1032C000F62E8AE0E82EF8018491882309F454C090
:1032D000813009F04DC0E8012196FE0184918130D2
:1032E00091F42196FE0184910E940C068E010F5FDD
:1032F0001F4F8F2D815038F3EFE9FFE03197F1F741
:1033000000C00000F7CF823039F4E8012296FE01B8
:1033100084910E947605EACF833039F4E801229641
:10332000FE0184910E94C205E1CF8430F9F6E801E4
:103330002296FE01249190E080E0FE013196205318
:10334000330B2A30310548F0019780F2EFE9FFE0B6
:103350003197F1F700C00000F7CFE89EA001E99E89
:10336000500D1124C901840F951F2491EF01E5CF61
:103370000E94FC18E801BACFCDB7DEB7E6E00C94A6
:10338000F724CF93DF93EB0186319C4511F50E9422
:10339000EF0C9A81992399F08A7A91E009F490E0F0
:1033A00090938A02811109C089E20E94C70C0E9491
:1033B000300D80E0DF91CF91089585E3F6CF8091C5
:1033C0008A02811104C089E20E94CF0CF0CF85E30C
:1033D000FBCF81E0EFCF0F931F93CF93DF93C42FE9
:1033E000D22FFC0182818823C9F040938D020E9474
:1033F0006A1D90938C0280938B0280E28C0F883040
:1034000040F4C77081E001C0880FCA95EAF70E94B6
:103410001506DF91CF911F910F91089510918D02A4
:10342000141332C080918B0290918C020E94821DF5
:10343000883C910548F5C0E2CD0F1D17B9F080E238
:10344000810F883040F4177081E001C0880F1A9511
:10345000EAF70E941C06C83048F481E09D2F97705F
:1034600001C0880F9A95EAF70E941506802F0E94E6
:103470000C06C83070F6D77081E001C0880FDA956D
:10348000EAF70E941C06C5CF80E28C0F883008F650
:10349000C77081E001C0880FCA95EAF7F2CF0F9399
:1034A0009C01CB01243F4CE5340759F1A8F4293D98
:1034B000FCE53F0701F12A3D4CE53407D1F1283DF9
:1034C0003C4591F406E221EE41EE68ED7CE50E9478
:1034D000EB1980E00F910895263FFCE53F07E9F0E6
:1034E000B0F0273F3C45F9F0FC018281882339F197
:1034F00010928D02EFCF07E225EE45EE69ED7CE5F7
:10350000E6CF06E221EE40EE64EF7CE5E0CF07E295
:1035100025EE44EE65EF7CE5DACF06E221EE42EEE1
:1035200066EF7CE5D4CF07E225EE46EE67EF7CE55B
:10353000CECF08E221E045EE6AED7CE5C8CF81E020
:10354000C9CF1092B9008CE08093B8000895B0E024
:10355000A0E0EDEAFAE10C94D624B82EEB010E942B
:103560006A1D6C01EE24E394F12CC431D10560F0A6
:1035700025E0E22EF12CCF3FDC0731F0CE0164E1F3
:1035800070E00E94A1247B0184EAA82E94E8992E81
:103590001092BC00A092BC000E946A1D8C01809118
:1035A000BC0087FF0DC08091B900887F8830F9F09A
:1035B0008091B900887F8031D1F00FEF1FEF08C0F4
:1035C000C8010E94821DE816F90648F70EEF1FEFAA
:1035D000CF3FDC07E9F2C6010E94821DC817D90758
:1035E000B8F6C801CDB7DEB7EBE00C94F224B09288
:1035F000BB009092BC000E946A1D8C018091BC00AF
:1036000087FF0AC08091B900887F883111F080342B
:10361000A1F610E000E0E5CFC8010E94821DE81687
:10362000F90660F7D3CF0F931F93CF93DF93EB018E
:103630008093BB0084E88093BC000E946A1D8C01CB
:103640008091BC0087FF11C02091B900287F81E0E4
:1036500090E0283211F490E080E0919581959109F5
:10366000DF91CF911F910F910895CF3FDC0741F378
:10367000C8010E94821DC817D90710F78EEF9FEF6F
:10368000EFCFB0E0A0E0E7E4FBE10C94D9246B01BC
:103690008A017901B9010E94A71AE6010C0D1D1DCE
:1036A000C017D10711F097FF08C024E92093BC0090
:1036B000CDB7DEB7E8E00C94F524B70189910E94FC
:1036C000131BEECFB0E0A0E0E8E6FBE10C94D924B8
:1036D000C62F6A017901B8010E94A71A97FD0CC094
:1036E000B8018C2F0E94131BE601EC0CFD1CCE15BB
:1036F000DF0511F097FF08C024E92093BC00CDB787
:10370000DEB7E8E00C94F524B80189910E94131B00
:10371000EECF84E98093BC00089590939701809345
:103720009601089590939302809392020895E091F8
:103730009202F0919302309729F00190F081E02DF0
:103740000995089580E00895E0919202F091930226
:10375000309799F020911D01222359F02091BB024E
:1037600027FF07C0DC012C9111962C93119726E0BE
:103770002C930280F381E02D09950895E091920247
:10378000F0919302309739F022E0DC012C93048011
:10379000F581E02D099508952091900230919102D4
:1037A0002817390771F09093910280939002E0916D
:1037B0009202F0919302309721F00680F781E02D7C
:1037C0000995089520918E0230918F0228173907AC
:1037D00071F090938F0280938E02E0919202F091AB
:1037E0009302309721F00084F185E02D099508952A
:1037F000FC01329680911D01882321F08091BB024B
:103800009EE187FF96E080E0915008F408952191B1
:103810002223D1F38F5FF8CF662301F120911D01A0
:103820002223F1F02091BB0227FF1AC0462F4695B4
:10383000469546954E3190F4677021E030E002C025
:10384000220F331F6A95E2F7840F911DFC018281DC
:1038500090E02823392381E0232B69F480E0089548
:10386000FC01329608962191261721F0E817F907F6
:10387000D1F7F4CF81E008959C01FC0132969FEFCF
:1038800080E04191461751F09F3F19F4411101C06A
:10389000982F8F5F8630A9F79F3F09F40895290F6D
:1038A000311D97FD3A95F90162830895FC01329626
:1038B00008962191261303C0DF0111971C92E81787
:1038C000F907B9F70895E62FE695E695E695EE3106
:1038D00068F4E80FF92FF11D677021E030E001C0B6
:1038E000220F6A95EAF78281822B82830895E62F60
:1038F000E695E695E695EE3170F4E80FF92FF11DA7
:10390000677021E030E001C0220F6A95EAF7209548
:10391000828128232283089520911D01222339F0DA
:103920002091BB0227FF03C00E94631C08950E94E0
:103930003C1C089520911D01222339F02091BB02E7
:1039400027FF03C00E94771C08950E94561C08950B
:10395000FC01329680911D01882351F08091BB02B9
:1039600087FF06C08EE1DF011D928A95E9F7089571
:1039700086E0F9CF46E050E00E94062521E0892B41
:1039800009F420E0822F089508950E94C41C089530
:10399000811106C081E0809394020E94C51C0895A5
:1039A00082E0F9CF83E0809394020E94C51C0895C1
:1039B0000E94C81C089581E0809394020E94C51C57
:1039C00008950E94DB1C0895089508950E94E51C47
:1039D0000895089508950E94E41C08950E94E91C2A
:1039E0000E9436120E94EA1C80E00E94901191E031
:1039F000811107C081E00E94901191E0811101C006
:103A000090E0892F089585B7806885BF85B7806865
:103A100085BF08951F921FB61F9211248F939F9305
:103A2000AF93BF9380919502811113C08091C70617
:103A30009091C806A091C906B091CA064196A11DF1
:103A4000B11D8093C7069093C806A093C906B09392
:103A5000CA06BF91AF919F918F911F901FBE1F907B
:103A600018958091CF06843031F10E94FA041092AB
:103A7000950288E190E020E40FB6F894A895809331
:103A800060000FBE2093600083B7817F846083BF96
:103A900083B7816083BF7894889583B78E7F83BF17
:103AA0000FB6F894A89580916000886180936000BB
:103AB000109260000FBE08950E9473080E940105D5
:103AC000089582E084BD93E095BD9AEF97BD809301
:103AD0006E0008952FB7F8948091C7069091C8069C
:103AE000A091C906B091CA062FBF08952FB7F894C8
:103AF0006091C7067091C8068091C9069091CA0668
:103B00002FBF08959C014FB7F8948091C7069091FC
:103B1000C806A091C906B091CA064FBF821B930B7D
:103B2000089578941F921FB61F9211248F939F932C
:103B3000AF93BF938091C7069091C806A091C90624
:103B4000B091CA060196A11DB11D8093C70690933E
:103B5000C806A093C906B093CA06BF91AF919F91C2
:103B60008F911F901FBE1F90189587E797E790933E
:103B700001088093000888E19AE00FB6F894A895B0
:103B8000809360000FBE90936000FFCF88E19AE0C1
:103B90000FB6F894A895809360000FBE90936000D4
:103BA000FFCF8091B902089508959C0182E080932F
:103BB000E9009FEF8091E800915085FD06C085EDFA
:103BC0008A95F1F700009111F5CF8091E80085FF0B
:103BD0000CC050E040E066E070E0C9010E941A208D
:103BE0008091E8008E778093E8000895CF93DF936B
:103BF000EC0180911D018823B1F18091BB0287FF08
:103C000032C060E282E08093E9008FEF9091E8009B
:103C1000815095FD06C095ED9A95F1F70000811150
:103C2000F5CF8091E80085FF1BC080911D0170E0F9
:103C300050E040E0811104C050E040E068E070E0F6
:103C4000CE010E941A208091E8008E778093E800D0
:103C500080E2FE01A9E9B2E001900D928A95E1F7B8
:103C6000DF91CF91089568E081E0CDCF80939602F7
:103C700070939802609397028091CF06843001F58B
:103C800082E08093E9008FEF9091E800815095FDEC
:103C900006C095ED9A95F1F700008111F5CF80915E
:103CA000E80085FF0DC050E040E063E070E086E989
:103CB00092E00E941A208091E8008E778093E800BD
:103CC0000895BC0184E00E94361E0895BC0183E083
:103CD0000E94361E08958091CE06811109C00E946F
:103CE000AA210E9407228091E20084608093E20072
:103CF00008951092CE0608950E94DB1C08956091ED
:103D0000CB0681E0611101C080E00E94D21C0895C1
:103D10009091CF0681E0943009F080E06091CB066D
:103D20000E94D81C089542E061EC81E00E942621A7
:103D300042E261EC82E00E9426219091CF0681E070
:103D4000943009F080E06091CB060E94C81C089571
:103D50008091D106833009F461C030F48130D1F113
:103D6000823009F49EC008958A3009F48AC08B30ED
:103D700009F46FC0893009F050C08091D0068132BB
:103D800009F04BC08091D4069091D506029708F0B7
:103D900044C08091E800877F8093E8008091E8002C
:103DA00082FF37C09091F3008091F200029731F4C6
:103DB0008091F100813011F0863021F48091F10082
:103DC0008093B9028091E8008B778093E8000E948D
:103DD0005A2123C08091D006813AF9F48091E800FD
:103DE000877F8093E8008091D4069091D506892B37
:103DF00061F460E289E992E070E00E9469208091BC
:103E0000E8008B778093E800089560E090E080E020
:103E1000F3CF8091CF068111C1CF08958091D00654
:103E2000813AD9F78091D4069091D506892BA9F7CC
:103E30008091E800877F8093E8008091E80080FF10
:103E4000FCCF80911D018093F1008091E8008E7776
:103E5000BCCF8091D006813201F78091D406909139
:103E6000D506892BD1F68091E800877F8093E80002
:103E70000E945A218091D20680931D010E947308EE
:103E800008958091D006813241F68091E800877FC5
:103E90008093E8000E945A218091D3068093BA0251
:103EA00008958091D006813A09F0B7CF8091E8005B
:103EB000877F8093E8008091E80080FFFCCF8091AD
:103EC000BA02C1CF84B7877F84BF0FB6F894A89594
:103ED00080916000886180936000109260000FBE46
:103EE00080E890E00FB6F8948093610090936100B1
:103EF0000FBE0E94E11C08950E94AA210E94072281
:103F0000E2EEF0E080818460808378940E948624D1
:103F1000089581E191E00E94921B08958091CF065F
:103F2000853031F48091CF06853019F00E945C1DF8
:103F300008950E94311D8091CD06882399F30E9437
:103F4000EE1C882379F30E9404200E947308EACFB4
:103F500008950E94AC1F0895292F3327233031057F
:103F600019F168F42130310509F444C022303105DB
:103F700009F445C090E080E030E020E025C0213227
:103F8000310549F122323105A9F780E490E027EEAE
:103F900036E061157105C1F086EB90E021E336E073
:103FA0006130710589F0E6CF99278130910581F064
:103FB000009729F00297F1F6EAEBF5E002C0E0EE97
:103FC000F5E0849190E09F01FA0131832083089508
:103FD000ECECF5E0F6CF89E090E026EF35E06115F6
:103FE000710591F389E090E02FE036E061307105D2
:103FF00059F3C0CF82E190E02FE136E0E5CF8BE3CB
:1040000090E024EE35E0E0CF80E189BD82E189BD1A
:1040100009B400FEFDCF8091D8008F7D8093D80039
:104020008091E00082608093E0008091E00081FD5B
:10403000FCCF0895AF92BF92CF92DF92FF920F9381
:104040001F93CF93DF936C01EB018A010E947921CA
:10405000F82E811123C00115110539F0F801808176
:104060009181C81BD90BC80ED91EB12CA12C209749
:10407000A9F08091E80085FD22C08091E8008E774C
:104080008093E80001151105A1F0F801808191816C
:10409000A80EB91EB182A08285E0F82E8F2DDF9187
:1040A000CF911F910F91FF90DF90CF90BF90AF9075
:1040B00008950E9479218823D1F2F82EEFCFF601DE
:1040C00081916F018093F1002197FFEFAF1ABF0A32
:1040D000CECFFC018091D6069091D7068617970720
:1040E000A0F06115710529F49091E8009E779093F6
:1040F000E80090E06115710551F4911108C08091BC
:10410000E80082FF34C080E00895BC01F2CF8091C6
:10411000CF068823C1F18530C1F18091E80083FD8D
:1041200030C08091E80082FDEACF8091E80080FFF6
:10413000E1CF8091F3002091F200382F61157105D5
:1041400019F02830310558F091E02830310509F098
:1041500090E02091E8002E772093E800CBCF81916A
:104160008093F100615071092F5F3F4FE7CF80913D
:10417000CF06882341F0853041F08091E80083FF2D
:10418000BECF81E0089582E0089583E00895FC01A8
:104190008091D6069091D70686179707A0F06115F3
:1041A000710529F48091E8008E778093E80090E013
:1041B0006115710551F4911108C08091E80082FFEA
:1041C00035C080E00895BC01F2CF8091CF068823EE
:1041D000C9F18530C9F18091E80083FD31C080913B
:1041E000E80082FDEACF8091E80080FFE1CF809176
:1041F000F3002091F200382F6115710519F0283075
:10420000310558F091E02830310509F090E08091B7
:10421000E8008E778093E800CBCF84918093F10003
:104220003196615071092F5F3F4FE6CF8091CF06E5
:10423000882341F0853041F08091E80083FFBDCFB5
:1042400081E0089582E0089583E00895982F9730E3
:1042500028F08F708093E90081E008959093E90041
:10426000242F762F50E0981731F07091EC002091B8
:10427000ED005091F00021FD02C09F5FE8CF30912A
:10428000EB003E7F3093EB003091ED003D7F3093AB
:10429000ED003091EB0031603093EB007093EC0057
:1042A0002093ED005093F0002091EE0027FDE5CF24
:1042B00080E008958091D00687FF13C08091E800C8
:1042C00082FF06C08091E8008B778093E80004C0ED
:1042D0008091CF068111F2CF08958091CF06882377
:1042E000D9F38091E80080FFF8CF8091E8008E77C5
:1042F000ECCF2091E4003091E50095E6A9012091F2
:10430000EC00822F817020FF06C08091E80080FFC2
:1043100006C080E008952091E80022FD1AC0809137
:10432000CF06882389F0853089F08091EB0085FDE8
:104330000FC02091E4003091E50042175307F9F2D5
:104340009150E1F684E0089582E0089583E00895B5
:1043500081E008950E9419220E942122E0EEF0E0FF
:10436000808181608083E8EDF0E080818F778083B9
:1043700019BCA7EDB0E08C918E7F8C9380818F7EED
:1043800080831092CE0608950F931F93CF93DF93EF
:104390000E9419220E942122C8EDD0E088818F77E7
:1043A000888388818068888388818F7D888319BC11
:1043B0001092CF061092CB061092CD061092CC062A
:1043C00000EE10E0F80180818B7F8083888181601E
:1043D000888342E060E080E00E942621E1EEF0E088
:1043E00080818E7F8083E2EEF0E080818160808337
:1043F000808188608083F80180818E7F80838881BE
:1044000080618883DF91CF911F910F910895E8ED2E
:10441000F0E080818F7E8083E7EDF0E08081816035
:10442000808384E082BF81E08093CE060E94C42115
:104430000895E8EDF0E080818E7F80831092E200A5
:1044400008951092DA001092E10008951F920F92E1
:104450000FB60F9211242F933F934F935F936F9357
:104460007F938F939F93AF93BF93EF93FF9380912D
:10447000E10082FF0BC08091E20082FF07C08091C3
:10448000E1008B7F8093E1000E9485248091DA0017
:1044900080FF19C08091D80080FF15C08091DA009C
:1044A0008E7F8093DA008091D90080FF96C080E1F2
:1044B00089BD82E189BD09B400FEFDCF81E0809312
:1044C000CF060E946B1E8091E10080FF19C0809191
:1044D000E20080FF15C08091E2008E7F8093E200B1
:1044E0008091E20080618093E2008091D800806238
:1044F0008093D80019BC85E08093CF060E947F1E70
:104500008091E10084FF2BC08091E20084FF27C0EE
:1045100080E189BD82E189BD89B5982F917080FFC6
:10452000FBCF8091D8008F7D8093D8008091E100EF
:104530008F7E8093E1008091E2008F7E8093E20085
:104540008091E20081608093E2008091CB06882315
:1045500009F449C084E08093CF060E94881E8091B0
:10456000E10083FF29C08091E20083FF25C0809194
:10457000E100877F8093E10082E08093CF06109274
:10458000CB068091E1008E7F8093E1008091E20074
:104590008E7F8093E2008091E20080618093E20050
:1045A00042E060E080E00E9426218091F000886077
:1045B0008093F0000E947C1EFF91EF91BF91AF911C
:1045C0009F918F917F916F915F914F913F912F912B
:1045D0000F900FBE0F901F90189519BC1092CF0628
:1045E0000E94791E70CF8091E30087FD93E0909345
:1045F000CF06B3CF1F920F920FB60F9211242F93B5
:104600003F934F935F936F937F938F939F93AF935A
:10461000BF93CF93DF93EF93FF93D091E900DF70C7
:104620008091EC00C82FC17080FDC0E81092E900B5
:104630008091F000877F8093F00078940E943E2361
:104640001092E9008091F00088608093F000CD2BFB
:10465000CF70C093E900FF91EF91DF91CF91BF91AF
:10466000AF919F918F917F916F915F914F913F910A
:104670002F910F900FBE0F901F901895AAE2B0E0F7
:10468000E4E4F3E20C94DE2480ED96E02091F10066
:10469000FC012193CF01F6E0883D9F07B9F70E9406
:1046A000A81E8091E80083FF1EC18091D0069091E2
:1046B000D1069A3008F017C1E92FF0E0E459FA4D1D
:1046C0000C94C924803899F0823809F00CC180918B
:1046D000D4068F70873008F006C18093E90080917E
:1046E000EB0085FB882780F91092E90006C08091D5
:1046F000CC069091CD06911182609091E800977F51
:104700009093E8008093F1001092F1008091E8000E
:104710008E77E5C0882309F4D3C0823009F0E3C066
:104720008091D2068111D6C08091D4068F702FEF70
:10473000280F263008F0D7C08093E9002091EB00C5
:1047400020FFC8C0933031F48091EB0080628093E9
:10475000EB00C0C09091EB0090619093EB0021E0E2
:1047600030E001C0220F8A95EAF72093EA00109208
:10477000EA008091EB008860EACF8111B4C010910B
:10478000D2061F778091E3008078812B8093E3002D
:104790008091E800877F8093E8000E945A218091F1
:1047A000E80080FFFCCF8091E30080688093E30005
:1047B00082E0111183E08093CF0695C0805882304B
:1047C00008F091C08091D2069091D3068C3D23E0F1
:1047D0009207A1F583E08A838AE289834FB7F89430
:1047E000DE01139620E03EE051E2E32FF0E050932B
:1047F0005700E49120FF03C0E295EF703F5FEF7038
:104800008E2F90E0EA30C0F0C7968D939D932F5F76
:10481000243159F74FBF8091E800877F8093E800EB
:104820006AE270E0CE0101960E9469208091E80062
:104830008B778093E80057C0C096E7CF6091D4068D
:104840007091D506AE014F5F5F4F0E94A91FBC015A
:10485000892B09F448C09091E800977F9093E80075
:1048600089819A810E94C720E1CF8038E1F580914B
:10487000E800877F8093E8008091CB068093F10069
:1048800045CF811130C09091D206923060F5809171
:10489000E800877F8093E8009093CB060E945A211E
:1048A0008091CB06882311F084E005C08091E3005D
:1048B00087FDFACF81E08093CF060E94931E13C03C
:1048C0008091D206813079F481E0933009F080E064
:1048D0008093CD061092E9008091E800877F809355
:1048E000E8000E945A218091E80083FF0AC080916D
:1048F000E800877F8093E8008091EB0080628093DE
:10490000EB00AA96E3E00C94FA240895CF938091EB
:10491000CF068823A1F0C091E900CF709091EC0000
:10492000892F817090FD80E8C82B1092E90080915A
:10493000E80083FD0E943E23CF70C093E900CF9131
:104940000895AA1BBB1B51E107C0AA1FBB1FA617D6
:10495000B70710F0A61BB70B881F991F5A95A9F728
:1049600080959095BC01CD01089597FB072E16F414
:10497000009407D077FD09D00E94A12407FC05D040
:104980003EF4909581959F4F0895709561957F4F66
:104990000895EE0FFF1F0590F491E02D09942F92DA
:1049A0003F924F925F926F927F928F929F92AF92BF
:1049B000BF92CF92DF92EF92FF920F931F93CF930C
:1049C000DF93CDB7DEB7CA1BDB0B0FB6F894DEBFA3
:1049D0000FBECDBF09942A88398848885F846E84C9
:1049E0007D848C849B84AA84B984C884DF80EE8013
:1049F000FD800C811B81AA81B981CE0FD11D0FB61C
:104A0000F894DEBF0FBECDBFED010895FB01DC01C0
:104A100004C08D910190801921F441505040C8F795
:104A2000881B990B0895FB01DC0102C001900D92D7
:104A300041505040D8F70895F999FECF92BD81BDFD
:104A4000F89A992780B50895A8E1B0E042E050E0D7
:104A50000C945025262FF999FECF92BD81BDF89A6E
:104A6000019700B4021639F01FBA20BD0FB6F894B2
:104A7000FA9AF99A0FBE08950396272F0E942B25C4
:104A80000E942A25252F0E942B25242F0C942B25AC
:104A90000196272F0E942B250C942A25DC01CB019F
:104AA000FC01F999FECF06C0F2BDE1BDF89A31963E
:104AB00000B40D9241505040B8F70895F894FFCFDC
:104AC0005E065E068F068F061C073807BE06BE060A
:104AD0004307B407C307C30762238A2373248A23C7
:0C4AE0007324BD23DE23732435244124FD
:104AEC000402280850011E0A14010021007F220034
:104AFC0007D11DF61DD51D661E611ED41D01E200D9
:104B0C00E900EA00B500B600B700CD008301CC0087
:104B1C008A01920194012102230224022502260219
:104B2C0027022A02B300B4006F007000818283E276
:104B3C0000E900EA00B500B600B700CD008301CC57
:104B4C00008A0192019401210223022402250226EB
:104B5C000227022A02B300B4006F00700081828326
:104B6C0034C69735360008101820283038383028CD
:064B7C00201810080000E3
:00000001FF
